{
  "contractName": "AccessControl",
  "abi": [
    {
      "inputs": [],
      "stateMutability": "nonpayable",
      "type": "constructor"
    },
    {
      "anonymous": false,
      "inputs": [
        {
          "indexed": false,
          "internalType": "address",
          "name": "admin",
          "type": "address"
        }
      ],
      "name": "AdminAdded",
      "type": "event"
    },
    {
      "anonymous": false,
      "inputs": [
        {
          "indexed": false,
          "internalType": "address",
          "name": "admin",
          "type": "address"
        }
      ],
      "name": "AdminRemoved",
      "type": "event"
    },
    {
      "anonymous": false,
      "inputs": [
        {
          "indexed": false,
          "internalType": "address",
          "name": "creator",
          "type": "address"
        }
      ],
      "name": "CreatorAdded",
      "type": "event"
    },
    {
      "anonymous": false,
      "inputs": [
        {
          "indexed": false,
          "internalType": "address",
          "name": "creator",
          "type": "address"
        }
      ],
      "name": "CreatorRemoved",
      "type": "event"
    },
    {
      "anonymous": false,
      "inputs": [
        {
          "indexed": false,
          "internalType": "address",
          "name": "verifier",
          "type": "address"
        }
      ],
      "name": "VerifierAdded",
      "type": "event"
    },
    {
      "anonymous": false,
      "inputs": [
        {
          "indexed": false,
          "internalType": "address",
          "name": "verifier",
          "type": "address"
        }
      ],
      "name": "VerifierRemoved",
      "type": "event"
    },
    {
      "inputs": [
        {
          "internalType": "address",
          "name": "",
          "type": "address"
        }
      ],
      "name": "admins",
      "outputs": [
        {
          "internalType": "bool",
          "name": "",
          "type": "bool"
        }
      ],
      "stateMutability": "view",
      "type": "function",
      "constant": true
    },
    {
      "inputs": [
        {
          "internalType": "address",
          "name": "",
          "type": "address"
        }
      ],
      "name": "creators",
      "outputs": [
        {
          "internalType": "bool",
          "name": "",
          "type": "bool"
        }
      ],
      "stateMutability": "view",
      "type": "function",
      "constant": true
    },
    {
      "inputs": [],
      "name": "owner",
      "outputs": [
        {
          "internalType": "address",
          "name": "",
          "type": "address"
        }
      ],
      "stateMutability": "view",
      "type": "function",
      "constant": true
    },
    {
      "inputs": [
        {
          "internalType": "address",
          "name": "",
          "type": "address"
        }
      ],
      "name": "verifiers",
      "outputs": [
        {
          "internalType": "bool",
          "name": "",
          "type": "bool"
        }
      ],
      "stateMutability": "view",
      "type": "function",
      "constant": true
    },
    {
      "inputs": [
        {
          "internalType": "address",
          "name": "_admin",
          "type": "address"
        }
      ],
      "name": "addAdmin",
      "outputs": [],
      "stateMutability": "nonpayable",
      "type": "function"
    },
    {
      "inputs": [
        {
          "internalType": "address",
          "name": "_admin",
          "type": "address"
        }
      ],
      "name": "removeAdmin",
      "outputs": [],
      "stateMutability": "nonpayable",
      "type": "function"
    },
    {
      "inputs": [
        {
          "internalType": "address",
          "name": "_verifier",
          "type": "address"
        }
      ],
      "name": "addVerifier",
      "outputs": [],
      "stateMutability": "nonpayable",
      "type": "function"
    },
    {
      "inputs": [
        {
          "internalType": "address",
          "name": "_verifier",
          "type": "address"
        }
      ],
      "name": "removeVerifier",
      "outputs": [],
      "stateMutability": "nonpayable",
      "type": "function"
    },
    {
      "inputs": [
        {
          "internalType": "address",
          "name": "_creator",
          "type": "address"
        }
      ],
      "name": "addCreator",
      "outputs": [],
      "stateMutability": "nonpayable",
      "type": "function"
    },
    {
      "inputs": [
        {
          "internalType": "address",
          "name": "_creator",
          "type": "address"
        }
      ],
      "name": "removeCreator",
      "outputs": [],
      "stateMutability": "nonpayable",
      "type": "function"
    },
    {
      "inputs": [
        {
          "internalType": "address",
          "name": "_address",
          "type": "address"
        }
      ],
      "name": "isVerifier",
      "outputs": [
        {
          "internalType": "bool",
          "name": "",
          "type": "bool"
        }
      ],
      "stateMutability": "view",
      "type": "function",
      "constant": true
    },
    {
      "inputs": [
        {
          "internalType": "address",
          "name": "_address",
          "type": "address"
        }
      ],
      "name": "isCreator",
      "outputs": [
        {
          "internalType": "bool",
          "name": "",
          "type": "bool"
        }
      ],
      "stateMutability": "view",
      "type": "function",
      "constant": true
    }
  ],
  "bytecode": "0x608060405234801561001057600080fd5b50336000806101000a81548173ffffffffffffffffffffffffffffffffffffffff021916908373ffffffffffffffffffffffffffffffffffffffff160217905550610dbd806100606000396000f3fe608060405234801561001057600080fd5b50600436106100b45760003560e01c80638da5cb5b116100715780638da5cb5b1461019d5780639000b3d6146101bb578063933166e1146101d7578063bd6018bb14610207578063ca2dfd0a14610223578063efd460651461023f576100b4565b80631785f53c146100b957806333105218146100d55780633b9dce0514610105578063429b62e5146101215780636c824487146101515780637048027514610181575b600080fd5b6100d360048036038101906100ce9190610b84565b61026f565b005b6100ef60048036038101906100ea9190610b84565b61041b565b6040516100fc9190610ca6565b60405180910390f35b61011f600480360381019061011a9190610b84565b610471565b005b61013b60048036038101906101369190610b84565b61058f565b6040516101489190610ca6565b60405180910390f35b61016b60048036038101906101669190610b84565b6105af565b6040516101789190610ca6565b60405180910390f35b61019b60048036038101906101969190610b84565b6105cf565b005b6101a561077b565b6040516101b29190610c8b565b60405180910390f35b6101d560048036038101906101d09190610b84565b61079f565b005b6101f160048036038101906101ec9190610b84565b6108bd565b6040516101fe9190610ca6565b60405180910390f35b610221600480360381019061021c9190610b84565b6108dd565b005b61023d60048036038101906102389190610b84565b6109fb565b005b61025960048036038101906102549190610b84565b610b19565b6040516102669190610ca6565b60405180910390f35b60008054906101000a900473ffffffffffffffffffffffffffffffffffffffff1673ffffffffffffffffffffffffffffffffffffffff163373ffffffffffffffffffffffffffffffffffffffff16146102fd576040517f08c379a00000000000000000000000000000000000000000000000000000000081526004016102f490610d01565b60405180910390fd5b600160008273ffffffffffffffffffffffffffffffffffffffff1673ffffffffffffffffffffffffffffffffffffffff16815260200190815260200160002060009054906101000a900460ff16610389576040517f08c379a000000000000000000000000000000000000000000000000000000000815260040161038090610ce1565b60405180910390fd5b6000600160008373ffffffffffffffffffffffffffffffffffffffff1673ffffffffffffffffffffffffffffffffffffffff16815260200190815260200160002060006101000a81548160ff0219169083151502179055507fa3b62bc36326052d97ea62d63c3d60308ed4c3ea8ac079dd8499f1e9c4f80c0f816040516104109190610c8b565b60405180910390a150565b6000600260008373ffffffffffffffffffffffffffffffffffffffff1673ffffffffffffffffffffffffffffffffffffffff16815260200190815260200160002060009054906101000a900460ff169050919050565b600160003373ffffffffffffffffffffffffffffffffffffffff1673ffffffffffffffffffffffffffffffffffffffff16815260200190815260200160002060009054906101000a900460ff166104fd576040517f08c379a00000000000000000000000000000000000000000000000000000000081526004016104f490610ce1565b60405180910390fd5b6001600360008373ffffffffffffffffffffffffffffffffffffffff1673ffffffffffffffffffffffffffffffffffffffff16815260200190815260200160002060006101000a81548160ff0219169083151502179055507f021a687fbe334e9e815cee8b399c0bc42e82356eb7f63a09ddb558a25d3dcdbd816040516105849190610c8b565b60405180910390a150565b60016020528060005260406000206000915054906101000a900460ff1681565b60026020528060005260406000206000915054906101000a900460ff1681565b60008054906101000a900473ffffffffffffffffffffffffffffffffffffffff1673ffffffffffffffffffffffffffffffffffffffff163373ffffffffffffffffffffffffffffffffffffffff161461065d576040517f08c379a000000000000000000000000000000000000000000000000000000000815260040161065490610d01565b60405180910390fd5b600160008273ffffffffffffffffffffffffffffffffffffffff1673ffffffffffffffffffffffffffffffffffffffff16815260200190815260200160002060009054906101000a900460ff16156106ea576040517f08c379a00000000000000000000000000000000000000000000000000000000081526004016106e190610cc1565b60405180910390fd5b60018060008373ffffffffffffffffffffffffffffffffffffffff1673ffffffffffffffffffffffffffffffffffffffff16815260200190815260200160002060006101000a81548160ff0219169083151502179055507f44d6d25963f097ad14f29f06854a01f575648a1ef82f30e562ccd3889717e339816040516107709190610c8b565b60405180910390a150565b60008054906101000a900473ffffffffffffffffffffffffffffffffffffffff1681565b600160003373ffffffffffffffffffffffffffffffffffffffff1673ffffffffffffffffffffffffffffffffffffffff16815260200190815260200160002060009054906101000a900460ff1661082b576040517f08c379a000000000000000000000000000000000000000000000000000000000815260040161082290610ce1565b60405180910390fd5b6001600260008373ffffffffffffffffffffffffffffffffffffffff1673ffffffffffffffffffffffffffffffffffffffff16815260200190815260200160002060006101000a81548160ff0219169083151502179055507f6d05492139c5ea989514a5d2150c028041e5c087e2a39967f67dc7d2655adb81816040516108b29190610c8b565b60405180910390a150565b60036020528060005260406000206000915054906101000a900460ff1681565b600160003373ffffffffffffffffffffffffffffffffffffffff1673ffffffffffffffffffffffffffffffffffffffff16815260200190815260200160002060009054906101000a900460ff16610969576040517f08c379a000000000000000000000000000000000000000000000000000000000815260040161096090610ce1565b60405180910390fd5b6000600360008373ffffffffffffffffffffffffffffffffffffffff1673ffffffffffffffffffffffffffffffffffffffff16815260200190815260200160002060006101000a81548160ff0219169083151502179055507f94a409f50d78dc8628b7499ba5af0848a134b9a935a59c0a45313b67f66920f8816040516109f09190610c8b565b60405180910390a150565b600160003373ffffffffffffffffffffffffffffffffffffffff1673ffffffffffffffffffffffffffffffffffffffff16815260200190815260200160002060009054906101000a900460ff16610a87576040517f08c379a0000000000000000000000000000000000000000000000000000000008152600401610a7e90610ce1565b60405180910390fd5b6000600260008373ffffffffffffffffffffffffffffffffffffffff1673ffffffffffffffffffffffffffffffffffffffff16815260200190815260200160002060006101000a81548160ff0219169083151502179055507f44a3cd4eb5cc5748f6169df057b1cb2ae4c383e87cd94663c430e095d4cba42481604051610b0e9190610c8b565b60405180910390a150565b6000600360008373ffffffffffffffffffffffffffffffffffffffff1673ffffffffffffffffffffffffffffffffffffffff16815260200190815260200160002060009054906101000a900460ff169050919050565b600081359050610b7e81610d70565b92915050565b600060208284031215610b9657600080fd5b6000610ba484828501610b6f565b91505092915050565b610bb681610d32565b82525050565b610bc581610d44565b82525050565b6000610bd8601083610d21565b91507f416c726561647920616e2061646d696e000000000000000000000000000000006000830152602082019050919050565b6000610c18600c83610d21565b91507f4e6f7420616e2061646d696e00000000000000000000000000000000000000006000830152602082019050919050565b6000610c58600d83610d21565b91507f4e6f7420746865206f776e6572000000000000000000000000000000000000006000830152602082019050919050565b6000602082019050610ca06000830184610bad565b92915050565b6000602082019050610cbb6000830184610bbc565b92915050565b60006020820190508181036000830152610cda81610bcb565b9050919050565b60006020820190508181036000830152610cfa81610c0b565b9050919050565b60006020820190508181036000830152610d1a81610c4b565b9050919050565b600082825260208201905092915050565b6000610d3d82610d50565b9050919050565b60008115159050919050565b600073ffffffffffffffffffffffffffffffffffffffff82169050919050565b610d7981610d32565b8114610d8457600080fd5b5056fea2646970667358221220287199264cc590140b0fbd2b1846cf5732c74bb3ac1394c63f58bc200cebb82364736f6c63430008000033",
  "immutableReferences": {},
  "source": "// SPDX-License-Identifier: MIT\r\npragma solidity ^0.8.0;\r\n\r\ncontract AccessControl {\r\n    address public owner;\r\n    mapping(address => bool) public admins;\r\n    mapping(address => bool) public verifiers;\r\n    mapping(address => bool) public creators;\r\n\r\n    event AdminAdded(address admin);\r\n    event AdminRemoved(address admin);\r\n    event VerifierAdded(address verifier);\r\n    event VerifierRemoved(address verifier);\r\n    event CreatorAdded(address creator);\r\n    event CreatorRemoved(address creator);\r\n\r\n    modifier onlyOwner() {\r\n        require(msg.sender == owner, \"Not the owner\");\r\n        _;\r\n    }\r\n\r\n    modifier onlyAdmin() {\r\n        require(admins[msg.sender], \"Not an admin\");\r\n        _;\r\n    }\r\n\r\n    constructor() {\r\n        owner = msg.sender;\r\n    }\r\n\r\n    function addAdmin(address _admin) external onlyOwner {\r\n        require(!admins[_admin], \"Already an admin\");\r\n        admins[_admin] = true;\r\n        emit AdminAdded(_admin);\r\n    }\r\n\r\n    function removeAdmin(address _admin) external onlyOwner {\r\n        require(admins[_admin], \"Not an admin\");\r\n        admins[_admin] = false;\r\n        emit AdminRemoved(_admin);\r\n    }\r\n\r\n    function addVerifier(address _verifier) external onlyAdmin {\r\n        verifiers[_verifier] = true;\r\n        emit VerifierAdded(_verifier);\r\n    }\r\n\r\n    function removeVerifier(address _verifier) external onlyAdmin {\r\n        verifiers[_verifier] = false;\r\n        emit VerifierRemoved(_verifier);\r\n    }\r\n\r\n    function addCreator(address _creator) external onlyAdmin {\r\n        creators[_creator] = true;\r\n        emit CreatorAdded(_creator);\r\n    }\r\n\r\n    function removeCreator(address _creator) external onlyAdmin {\r\n        creators[_creator] = false;\r\n        emit CreatorRemoved(_creator);\r\n    }\r\n\r\n    function isVerifier(address _address) external view returns (bool) {\r\n        return verifiers[_address];\r\n    }\r\n\r\n    function isCreator(address _address) external view returns (bool) {\r\n        return creators[_address];\r\n    }\r\n}\r\n",
  "sourcePath": "A:\\Blockchain for media\\contracts\\AccessControl.sol",
  "compiler": {
    "name": "solc",
    "version": "0.8.0+commit.c7dfd78e.Emscripten.clang"
  },
  "schemaVersion": "3.4.16",
  "updatedAt": "2024-09-28T16:03:49.943Z",
  "networkType": "ethereum",
  "devdoc": {
    "kind": "dev",
    "methods": {},
    "version": 1
  },
  "userdoc": {
    "kind": "user",
    "methods": {},
    "version": 1
  }
}