{
  "contractName": "Content",
  "abi": [
    {
      "anonymous": false,
      "inputs": [
        {
          "indexed": false,
          "internalType": "uint256",
          "name": "id",
          "type": "uint256"
        },
        {
          "indexed": false,
          "internalType": "address",
          "name": "creator",
          "type": "address"
        },
        {
          "indexed": false,
          "internalType": "string",
          "name": "ipfsHash",
          "type": "string"
        },
        {
          "indexed": false,
          "internalType": "uint256",
          "name": "price",
          "type": "uint256"
        }
      ],
      "name": "ContentCreated",
      "type": "event"
    },
    {
      "anonymous": false,
      "inputs": [
        {
          "indexed": false,
          "internalType": "uint256",
          "name": "id",
          "type": "uint256"
        }
      ],
      "name": "ContentDeactivated",
      "type": "event"
    },
    {
      "anonymous": false,
      "inputs": [
        {
          "indexed": false,
          "internalType": "uint256",
          "name": "id",
          "type": "uint256"
        },
        {
          "indexed": false,
          "internalType": "address",
          "name": "verifier",
          "type": "address"
        }
      ],
      "name": "ContentVerified",
      "type": "event"
    },
    {
      "inputs": [],
      "name": "contentCount",
      "outputs": [
        {
          "internalType": "uint256",
          "name": "",
          "type": "uint256"
        }
      ],
      "stateMutability": "view",
      "type": "function",
      "constant": true
    },
    {
      "inputs": [
        {
          "internalType": "uint256",
          "name": "",
          "type": "uint256"
        }
      ],
      "name": "contents",
      "outputs": [
        {
          "internalType": "uint256",
          "name": "id",
          "type": "uint256"
        },
        {
          "internalType": "address payable",
          "name": "creator",
          "type": "address"
        },
        {
          "internalType": "string",
          "name": "ipfsHash",
          "type": "string"
        },
        {
          "internalType": "uint256",
          "name": "price",
          "type": "uint256"
        },
        {
          "internalType": "bool",
          "name": "isVerified",
          "type": "bool"
        },
        {
          "internalType": "bool",
          "name": "isActive",
          "type": "bool"
        }
      ],
      "stateMutability": "view",
      "type": "function",
      "constant": true
    },
    {
      "inputs": [
        {
          "internalType": "string",
          "name": "_ipfsHash",
          "type": "string"
        },
        {
          "internalType": "uint256",
          "name": "_price",
          "type": "uint256"
        }
      ],
      "name": "uploadContent",
      "outputs": [],
      "stateMutability": "nonpayable",
      "type": "function"
    },
    {
      "inputs": [
        {
          "internalType": "uint256",
          "name": "_id",
          "type": "uint256"
        }
      ],
      "name": "verifyContent",
      "outputs": [],
      "stateMutability": "nonpayable",
      "type": "function"
    },
    {
      "inputs": [
        {
          "internalType": "uint256",
          "name": "_id",
          "type": "uint256"
        }
      ],
      "name": "deactivateContent",
      "outputs": [],
      "stateMutability": "nonpayable",
      "type": "function"
    },
    {
      "inputs": [
        {
          "internalType": "uint256",
          "name": "_id",
          "type": "uint256"
        }
      ],
      "name": "getContent",
      "outputs": [
        {
          "internalType": "address",
          "name": "",
          "type": "address"
        },
        {
          "internalType": "string",
          "name": "",
          "type": "string"
        },
        {
          "internalType": "uint256",
          "name": "",
          "type": "uint256"
        },
        {
          "internalType": "bool",
          "name": "",
          "type": "bool"
        },
        {
          "internalType": "bool",
          "name": "",
          "type": "bool"
        }
      ],
      "stateMutability": "view",
      "type": "function",
      "constant": true
    }
  ],
  "bytecode": "0x60806040526000805534801561001457600080fd5b50610cff806100246000396000f3fe608060405234801561001057600080fd5b50600436106100625760003560e01c80630b7ad54c1461006757806365e404ed1461009b578063b5ecf912146100b7578063cc459696146100ec578063f2d0811f1461010a578063fd2a176e14610126575b600080fd5b610081600480360381019061007c9190610830565b610142565b60405161009295949392919061090e565b60405180910390f35b6100b560048036038101906100b091906107dc565b6102cb565b005b6100d160048036038101906100cc9190610830565b61043f565b6040516100e3969594939291906109cc565b60405180910390f35b6100f461053d565b6040516101019190610988565b60405180910390f35b610124600480360381019061011f9190610830565b610543565b005b610140600480360381019061013b9190610830565b610652565b005b60006060600080600080600160008881526020019081526020016000206040518060c0016040529081600082015481526020016001820160009054906101000a900473ffffffffffffffffffffffffffffffffffffffff1673ffffffffffffffffffffffffffffffffffffffff1673ffffffffffffffffffffffffffffffffffffffff1681526020016002820180546101da90610b99565b80601f016020809104026020016040519081016040528092919081815260200182805461020690610b99565b80156102535780601f1061022857610100808354040283529160200191610253565b820191906000526020600020905b81548152906001019060200180831161023657829003601f168201915b50505050508152602001600382015481526020016004820160009054906101000a900460ff161515151581526020016004820160019054906101000a900460ff161515151581525050905080602001518160400151826060015183608001518460a00151955095509550955095505091939590929450565b6000808154809291906102dd90610bcb565b91905055506040518060c0016040528060005481526020013373ffffffffffffffffffffffffffffffffffffffff1681526020018381526020018281526020016000151581526020016001151581525060016000805481526020019081526020016000206000820151816000015560208201518160010160006101000a81548173ffffffffffffffffffffffffffffffffffffffff021916908373ffffffffffffffffffffffffffffffffffffffff16021790555060408201518160020190805190602001906103ae9291906106bc565b506060820151816003015560808201518160040160006101000a81548160ff02191690831515021790555060a08201518160040160016101000a81548160ff0219169083151502179055509050507f412c27a7318aac9979dd1ff80a6b3eb3bc35c9a8c22b7b75d7959605180ab9ac6000543384846040516104339493929190610a34565b60405180910390a15050565b60016020528060005260406000206000915090508060000154908060010160009054906101000a900473ffffffffffffffffffffffffffffffffffffffff169080600201805461048e90610b99565b80601f01602080910402602001604051908101604052809291908181526020018280546104ba90610b99565b80156105075780601f106104dc57610100808354040283529160200191610507565b820191906000526020600020905b8154815290600101906020018083116104ea57829003601f168201915b5050505050908060030154908060040160009054906101000a900460ff16908060040160019054906101000a900460ff16905086565b60005481565b803373ffffffffffffffffffffffffffffffffffffffff166001600083815260200190815260200160002060010160009054906101000a900473ffffffffffffffffffffffffffffffffffffffff1673ffffffffffffffffffffffffffffffffffffffff16146105e8576040517f08c379a00000000000000000000000000000000000000000000000000000000081526004016105df90610968565b60405180910390fd5b60006001600084815260200190815260200160002060040160016101000a81548160ff0219169083151502179055507f87eca800c5aafd6414b5e7f7f64649c6a947da66c7fdcbaa2b856462d388e25b826040516106469190610988565b60405180910390a15050565b600180600083815260200190815260200160002060040160006101000a81548160ff0219169083151502179055507ff205e57d9b6223e20100a74b19c3038e7fe3a3cee78d0023e8176946a68dd7c681336040516106b19291906109a3565b60405180910390a150565b8280546106c890610b99565b90600052602060002090601f0160209004810192826106ea5760008555610731565b82601f1061070357805160ff1916838001178555610731565b82800160010185558215610731579182015b82811115610730578251825591602001919060010190610715565b5b50905061073e9190610742565b5090565b5b8082111561075b576000816000905550600101610743565b5090565b600061077261076d84610ab1565b610a80565b90508281526020810184848401111561078a57600080fd5b610795848285610b57565b509392505050565b600082601f8301126107ae57600080fd5b81356107be84826020860161075f565b91505092915050565b6000813590506107d681610cb2565b92915050565b600080604083850312156107ef57600080fd5b600083013567ffffffffffffffff81111561080957600080fd5b6108158582860161079d565b9250506020610826858286016107c7565b9150509250929050565b60006020828403121561084257600080fd5b6000610850848285016107c7565b91505092915050565b61086281610b0f565b82525050565b61087181610afd565b82525050565b61088081610b21565b82525050565b600061089182610ae1565b61089b8185610aec565b93506108ab818560208601610b66565b6108b481610ca1565b840191505092915050565b60006108cc601783610aec565b91507f4e6f742074686520636f6e74656e742063726561746f720000000000000000006000830152602082019050919050565b61090881610b4d565b82525050565b600060a0820190506109236000830188610868565b81810360208301526109358187610886565b905061094460408301866108ff565b6109516060830185610877565b61095e6080830184610877565b9695505050505050565b60006020820190508181036000830152610981816108bf565b9050919050565b600060208201905061099d60008301846108ff565b92915050565b60006040820190506109b860008301856108ff565b6109c56020830184610868565b9392505050565b600060c0820190506109e160008301896108ff565b6109ee6020830188610859565b8181036040830152610a008187610886565b9050610a0f60608301866108ff565b610a1c6080830185610877565b610a2960a0830184610877565b979650505050505050565b6000608082019050610a4960008301876108ff565b610a566020830186610868565b8181036040830152610a688185610886565b9050610a7760608301846108ff565b95945050505050565b6000604051905081810181811067ffffffffffffffff82111715610aa757610aa6610c72565b5b8060405250919050565b600067ffffffffffffffff821115610acc57610acb610c72565b5b601f19601f8301169050602081019050919050565b600081519050919050565b600082825260208201905092915050565b6000610b0882610b2d565b9050919050565b6000610b1a82610b2d565b9050919050565b60008115159050919050565b600073ffffffffffffffffffffffffffffffffffffffff82169050919050565b6000819050919050565b82818337600083830152505050565b60005b83811015610b84578082015181840152602081019050610b69565b83811115610b93576000848401525b50505050565b60006002820490506001821680610bb157607f821691505b60208210811415610bc557610bc4610c43565b5b50919050565b6000610bd682610b4d565b91507fffffffffffffffffffffffffffffffffffffffffffffffffffffffffffffffff821415610c0957610c08610c14565b5b600182019050919050565b7f4e487b7100000000000000000000000000000000000000000000000000000000600052601160045260246000fd5b7f4e487b7100000000000000000000000000000000000000000000000000000000600052602260045260246000fd5b7f4e487b7100000000000000000000000000000000000000000000000000000000600052604160045260246000fd5b6000601f19601f8301169050919050565b610cbb81610b4d565b8114610cc657600080fd5b5056fea264697066735822122000957b398d4a28e78f914afbb81f0b584a16e1e7d67600f1f43a38d5e9853dc564736f6c63430008000033",
  "immutableReferences": {},
  "source": "// SPDX-License-Identifier: MIT\r\npragma solidity ^0.8.0;\r\n\r\ncontract Content {\r\n    struct ContentItem {\r\n        uint id;\r\n        address payable creator;\r\n        string ipfsHash; // Content stored on IPFS\r\n        uint price;\r\n        bool isVerified; // To combat misinformation\r\n        bool isActive;\r\n    }\r\n\r\n    uint public contentCount = 0;\r\n    mapping(uint => ContentItem) public contents;\r\n\r\n    event ContentCreated(uint id, address creator, string ipfsHash, uint price);\r\n    event ContentVerified(uint id, address verifier);\r\n    event ContentDeactivated(uint id);\r\n\r\n    modifier onlyCreator(uint _id) {\r\n        require(contents[_id].creator == msg.sender, \"Not the content creator\");\r\n        _;\r\n    }\r\n\r\n    function uploadContent(string memory _ipfsHash, uint _price) external {\r\n        contentCount++;\r\n        contents[contentCount] = ContentItem(contentCount, payable(msg.sender), _ipfsHash, _price, false, true);\r\n        emit ContentCreated(contentCount, msg.sender, _ipfsHash, _price);\r\n    }\r\n\r\n    function verifyContent(uint _id) external {\r\n        // Add access control later\r\n        contents[_id].isVerified = true;\r\n        emit ContentVerified(_id, msg.sender);\r\n    }\r\n\r\n    function deactivateContent(uint _id) external onlyCreator(_id) {\r\n        contents[_id].isActive = false;\r\n        emit ContentDeactivated(_id);\r\n    }\r\n\r\n    function getContent(uint _id) external view returns (address, string memory, uint, bool, bool) {\r\n        ContentItem memory c = contents[_id];\r\n        return (c.creator, c.ipfsHash, c.price, c.isVerified, c.isActive);\r\n    }\r\n}\r\n",
  "sourcePath": "A:\\Blockchain for media\\contracts\\Content.sol",
  "compiler": {
    "name": "solc",
    "version": "0.8.0+commit.c7dfd78e.Emscripten.clang"
  },
  "schemaVersion": "3.4.16",
  "updatedAt": "2024-09-28T16:03:49.935Z",
  "networkType": "ethereum",
  "devdoc": {
    "kind": "dev",
    "methods": {},
    "version": 1
  },
  "userdoc": {
    "kind": "user",
    "methods": {},
    "version": 1
  }
}