{
  "contractName": "Payment",
  "abi": [
    {
      "anonymous": false,
      "inputs": [
        {
          "indexed": false,
          "internalType": "uint256",
          "name": "id",
          "type": "uint256"
        },
        {
          "indexed": false,
          "internalType": "address",
          "name": "payer",
          "type": "address"
        },
        {
          "indexed": false,
          "internalType": "address",
          "name": "creator",
          "type": "address"
        },
        {
          "indexed": false,
          "internalType": "uint256",
          "name": "contentId",
          "type": "uint256"
        },
        {
          "indexed": false,
          "internalType": "uint256",
          "name": "amount",
          "type": "uint256"
        }
      ],
      "name": "PaymentMade",
      "type": "event"
    },
    {
      "inputs": [],
      "name": "transactionCount",
      "outputs": [
        {
          "internalType": "uint256",
          "name": "",
          "type": "uint256"
        }
      ],
      "stateMutability": "view",
      "type": "function",
      "constant": true
    },
    {
      "inputs": [
        {
          "internalType": "uint256",
          "name": "",
          "type": "uint256"
        }
      ],
      "name": "transactions",
      "outputs": [
        {
          "internalType": "uint256",
          "name": "id",
          "type": "uint256"
        },
        {
          "internalType": "address",
          "name": "payer",
          "type": "address"
        },
        {
          "internalType": "address payable",
          "name": "creator",
          "type": "address"
        },
        {
          "internalType": "uint256",
          "name": "amount",
          "type": "uint256"
        },
        {
          "internalType": "uint256",
          "name": "contentId",
          "type": "uint256"
        }
      ],
      "stateMutability": "view",
      "type": "function",
      "constant": true
    },
    {
      "inputs": [
        {
          "internalType": "uint256",
          "name": "_contentId",
          "type": "uint256"
        },
        {
          "internalType": "address payable",
          "name": "_creator",
          "type": "address"
        },
        {
          "internalType": "uint256",
          "name": "_amount",
          "type": "uint256"
        }
      ],
      "name": "payCreator",
      "outputs": [],
      "stateMutability": "payable",
      "type": "function",
      "payable": true
    },
    {
      "inputs": [
        {
          "internalType": "uint256",
          "name": "_id",
          "type": "uint256"
        }
      ],
      "name": "getTransaction",
      "outputs": [
        {
          "internalType": "address",
          "name": "",
          "type": "address"
        },
        {
          "internalType": "address",
          "name": "",
          "type": "address"
        },
        {
          "internalType": "uint256",
          "name": "",
          "type": "uint256"
        },
        {
          "internalType": "uint256",
          "name": "",
          "type": "uint256"
        }
      ],
      "stateMutability": "view",
      "type": "function",
      "constant": true
    }
  ],
  "bytecode": "0x60806040526000805534801561001457600080fd5b506108f4806100246000396000f3fe60806040526004361061003f5760003560e01c806333ea3dc8146100445780639ace38c214610084578063b77bf600146100c5578063b78d35a2146100f0575b600080fd5b34801561005057600080fd5b5061006b60048036038101906100669190610509565b61010c565b60405161007b949392919061063d565b60405180910390f35b34801561009057600080fd5b506100ab60048036038101906100a69190610509565b610222565b6040516100bc9594939291906106dd565b60405180910390f35b3480156100d157600080fd5b506100da610298565b6040516100e791906106c2565b60405180910390f35b61010a60048036038101906101059190610532565b61029e565b005b6000806000806000600160008781526020019081526020016000206040518060a0016040529081600082015481526020016001820160009054906101000a900473ffffffffffffffffffffffffffffffffffffffff1673ffffffffffffffffffffffffffffffffffffffff1673ffffffffffffffffffffffffffffffffffffffff1681526020016002820160009054906101000a900473ffffffffffffffffffffffffffffffffffffffff1673ffffffffffffffffffffffffffffffffffffffff1673ffffffffffffffffffffffffffffffffffffffff16815260200160038201548152602001600482015481525050905080602001518160400151826080015183606001519450945094509450509193509193565b60016020528060005260406000206000915090508060000154908060010160009054906101000a900473ffffffffffffffffffffffffffffffffffffffff16908060020160009054906101000a900473ffffffffffffffffffffffffffffffffffffffff16908060030154908060040154905085565b60005481565b8034146102e0576040517f08c379a00000000000000000000000000000000000000000000000000000000081526004016102d790610682565b60405180910390fd5b60003411610323576040517f08c379a000000000000000000000000000000000000000000000000000000000815260040161031a906106a2565b60405180910390fd5b60008081548092919061033590610818565b91905055506040518060a0016040528060005481526020013373ffffffffffffffffffffffffffffffffffffffff1681526020018373ffffffffffffffffffffffffffffffffffffffff1681526020013481526020018481525060016000805481526020019081526020016000206000820151816000015560208201518160010160006101000a81548173ffffffffffffffffffffffffffffffffffffffff021916908373ffffffffffffffffffffffffffffffffffffffff16021790555060408201518160020160006101000a81548173ffffffffffffffffffffffffffffffffffffffff021916908373ffffffffffffffffffffffffffffffffffffffff16021790555060608201518160030155608082015181600401559050508173ffffffffffffffffffffffffffffffffffffffff166108fc349081150290604051600060405180830381858888f19350505050158015610498573d6000803e3d6000fd5b507f32aced27dfd49efcd31ceb0567a1ef533d2ab1481334c3f316047bf16fe1c8e8600054338486346040516104d2959493929190610730565b60405180910390a1505050565b6000813590506104ee81610890565b92915050565b600081359050610503816108a7565b92915050565b60006020828403121561051b57600080fd5b6000610529848285016104f4565b91505092915050565b60008060006060848603121561054757600080fd5b6000610555868287016104f4565b9350506020610566868287016104df565b9250506040610577868287016104f4565b9150509250925092565b61058a816107e2565b82525050565b610599816107a6565b82525050565b6105a881610794565b82525050565b60006105bb601583610783565b91507f496e636f727265637420616d6f756e742073656e7400000000000000000000006000830152602082019050919050565b60006105fb601e83610783565b91507f5061796d656e74206d757374206265206d6f7265207468616e207a65726f00006000830152602082019050919050565b610637816107d8565b82525050565b6000608082019050610652600083018761059f565b61065f602083018661059f565b61066c604083018561062e565b610679606083018461062e565b95945050505050565b6000602082019050818103600083015261069b816105ae565b9050919050565b600060208201905081810360008301526106bb816105ee565b9050919050565b60006020820190506106d7600083018461062e565b92915050565b600060a0820190506106f2600083018861062e565b6106ff602083018761059f565b61070c6040830186610590565b610719606083018561062e565b610726608083018461062e565b9695505050505050565b600060a082019050610745600083018861062e565b610752602083018761059f565b61075f6040830186610581565b61076c606083018561062e565b610779608083018461062e565b9695505050505050565b600082825260208201905092915050565b600061079f826107b8565b9050919050565b60006107b1826107b8565b9050919050565b600073ffffffffffffffffffffffffffffffffffffffff82169050919050565b6000819050919050565b60006107ed826107f4565b9050919050565b60006107ff82610806565b9050919050565b6000610811826107b8565b9050919050565b6000610823826107d8565b91507fffffffffffffffffffffffffffffffffffffffffffffffffffffffffffffffff82141561085657610855610861565b5b600182019050919050565b7f4e487b7100000000000000000000000000000000000000000000000000000000600052601160045260246000fd5b610899816107a6565b81146108a457600080fd5b50565b6108b0816107d8565b81146108bb57600080fd5b5056fea26469706673582212200105cb076349abb2b893cefc7d2607fdb89d7899a575b00c1dedcaf4bd3fcbc664736f6c63430008000033",
  "immutableReferences": {},
  "source": "// SPDX-License-Identifier: MIT\r\npragma solidity ^0.8.0;\r\n\r\ncontract Payment {\r\n    struct Transaction {\r\n        uint id;\r\n        address payer;\r\n        address payable creator;\r\n        uint amount;\r\n        uint contentId;\r\n    }\r\n\r\n    uint public transactionCount = 0;\r\n    mapping(uint => Transaction) public transactions;\r\n\r\n    event PaymentMade(uint id, address payer, address creator, uint contentId, uint amount);\r\n\r\n    function payCreator(uint _contentId, address payable _creator, uint _amount) external payable {\r\n        require(msg.value == _amount, \"Incorrect amount sent\");\r\n        require(msg.value > 0, \"Payment must be more than zero\");\r\n        \r\n        transactionCount++;\r\n        transactions[transactionCount] = Transaction(transactionCount, msg.sender, _creator, msg.value, _contentId);\r\n        _creator.transfer(msg.value);\r\n        emit PaymentMade(transactionCount, msg.sender, _creator, _contentId, msg.value);\r\n    }\r\n\r\n    function getTransaction(uint _id) external view returns (address, address, uint, uint) {\r\n        Transaction memory t = transactions[_id];\r\n        return (t.payer, t.creator, t.contentId, t.amount);\r\n    }\r\n}\r\n",
  "sourcePath": "A:\\Blockchain for media\\contracts\\Payment.sol",
  "compiler": {
    "name": "solc",
    "version": "0.8.0+commit.c7dfd78e.Emscripten.clang"
  },
  "schemaVersion": "3.4.16",
  "updatedAt": "2024-09-28T16:03:49.940Z",
  "networkType": "ethereum",
  "devdoc": {
    "kind": "dev",
    "methods": {},
    "version": 1
  },
  "userdoc": {
    "kind": "user",
    "methods": {},
    "version": 1
  }
}