{
  "contractName": "AccessControl",
  "abi": [
    {
      "inputs": [],
      "stateMutability": "nonpayable",
      "type": "constructor"
    },
    {
      "anonymous": false,
      "inputs": [
        {
          "indexed": true,
          "internalType": "address",
          "name": "admin",
          "type": "address"
        }
      ],
      "name": "AdminAdded",
      "type": "event"
    },
    {
      "anonymous": false,
      "inputs": [
        {
          "indexed": true,
          "internalType": "address",
          "name": "admin",
          "type": "address"
        }
      ],
      "name": "AdminRemoved",
      "type": "event"
    },
    {
      "anonymous": false,
      "inputs": [
        {
          "indexed": true,
          "internalType": "address",
          "name": "creator",
          "type": "address"
        }
      ],
      "name": "ContentCreatorAdded",
      "type": "event"
    },
    {
      "anonymous": false,
      "inputs": [
        {
          "indexed": true,
          "internalType": "address",
          "name": "creator",
          "type": "address"
        }
      ],
      "name": "ContentCreatorRemoved",
      "type": "event"
    },
    {
      "anonymous": false,
      "inputs": [
        {
          "indexed": true,
          "internalType": "address",
          "name": "previousOwner",
          "type": "address"
        },
        {
          "indexed": true,
          "internalType": "address",
          "name": "newOwner",
          "type": "address"
        }
      ],
      "name": "OwnershipTransferred",
      "type": "event"
    },
    {
      "inputs": [],
      "name": "owner",
      "outputs": [
        {
          "internalType": "address",
          "name": "",
          "type": "address"
        }
      ],
      "stateMutability": "view",
      "type": "function"
    },
    {
      "inputs": [],
      "name": "renounceOwnership",
      "outputs": [],
      "stateMutability": "nonpayable",
      "type": "function"
    },
    {
      "inputs": [
        {
          "internalType": "address",
          "name": "newOwner",
          "type": "address"
        }
      ],
      "name": "transferOwnership",
      "outputs": [],
      "stateMutability": "nonpayable",
      "type": "function"
    },
    {
      "inputs": [
        {
          "internalType": "address",
          "name": "_admin",
          "type": "address"
        }
      ],
      "name": "addAdmin",
      "outputs": [],
      "stateMutability": "nonpayable",
      "type": "function"
    },
    {
      "inputs": [
        {
          "internalType": "address",
          "name": "_admin",
          "type": "address"
        }
      ],
      "name": "removeAdmin",
      "outputs": [],
      "stateMutability": "nonpayable",
      "type": "function"
    },
    {
      "inputs": [
        {
          "internalType": "address",
          "name": "_creator",
          "type": "address"
        }
      ],
      "name": "addContentCreator",
      "outputs": [],
      "stateMutability": "nonpayable",
      "type": "function"
    },
    {
      "inputs": [
        {
          "internalType": "address",
          "name": "_creator",
          "type": "address"
        }
      ],
      "name": "removeContentCreator",
      "outputs": [],
      "stateMutability": "nonpayable",
      "type": "function"
    },
    {
      "inputs": [
        {
          "internalType": "address",
          "name": "_account",
          "type": "address"
        }
      ],
      "name": "isAdmin",
      "outputs": [
        {
          "internalType": "bool",
          "name": "",
          "type": "bool"
        }
      ],
      "stateMutability": "view",
      "type": "function"
    },
    {
      "inputs": [
        {
          "internalType": "address",
          "name": "_account",
          "type": "address"
        }
      ],
      "name": "isContentCreator",
      "outputs": [
        {
          "internalType": "bool",
          "name": "",
          "type": "bool"
        }
      ],
      "stateMutability": "view",
      "type": "function"
    }
  ],
  "bytecode": "0x608060405234801561001057600080fd5b5061002d6100226100cc60201b60201c565b6100d460201b60201c565b60018060003373ffffffffffffffffffffffffffffffffffffffff1673ffffffffffffffffffffffffffffffffffffffff16815260200190815260200160002060006101000a81548160ff0219169083151502179055503373ffffffffffffffffffffffffffffffffffffffff167f44d6d25963f097ad14f29f06854a01f575648a1ef82f30e562ccd3889717e33960405160405180910390a2610198565b600033905090565b60008060009054906101000a900473ffffffffffffffffffffffffffffffffffffffff169050816000806101000a81548173ffffffffffffffffffffffffffffffffffffffff021916908373ffffffffffffffffffffffffffffffffffffffff1602179055508173ffffffffffffffffffffffffffffffffffffffff168173ffffffffffffffffffffffffffffffffffffffff167f8be0079c531659141344cd1fd0a4f28419497f9722a3daafe3b4186f6b6457e060405160405180910390a35050565b610eac806101a76000396000f3fe608060405234801561001057600080fd5b50600436106100935760003560e01c8063715018a611610066578063715018a6146101305780638da5cb5b1461013a578063af91985e14610158578063b0c04d4614610174578063f2fde38b1461019057610093565b80631785f53c1461009857806324d7806c146100b457806332f41bf6146100e45780637048027514610114575b600080fd5b6100b260048036038101906100ad9190610a0f565b6101ac565b005b6100ce60048036038101906100c99190610a0f565b6102de565b6040516100db9190610d15565b60405180910390f35b6100fe60048036038101906100f99190610a0f565b610334565b60405161010b9190610d15565b60405180910390f35b61012e60048036038101906101299190610a0f565b61038a565b005b61013861049f565b005b6101426104b3565b60405161014f9190610cfa565b60405180910390f35b610172600480360381019061016d9190610a0f565b6104dc565b005b61018e60048036038101906101899190610a0f565b610692565b005b6101aa60048036038101906101a59190610a0f565b61082c565b005b6101b46108b0565b600160008273ffffffffffffffffffffffffffffffffffffffff1673ffffffffffffffffffffffffffffffffffffffff16815260200190815260200160002060009054906101000a900460ff16610240576040517f08c379a000000000000000000000000000000000000000000000000000000000815260040161023790610d90565b60405180910390fd5b6000600160008373ffffffffffffffffffffffffffffffffffffffff1673ffffffffffffffffffffffffffffffffffffffff16815260200190815260200160002060006101000a81548160ff0219169083151502179055508073ffffffffffffffffffffffffffffffffffffffff167fa3b62bc36326052d97ea62d63c3d60308ed4c3ea8ac079dd8499f1e9c4f80c0f60405160405180910390a250565b6000600160008373ffffffffffffffffffffffffffffffffffffffff1673ffffffffffffffffffffffffffffffffffffffff16815260200190815260200160002060009054906101000a900460ff169050919050565b6000600260008373ffffffffffffffffffffffffffffffffffffffff1673ffffffffffffffffffffffffffffffffffffffff16815260200190815260200160002060009054906101000a900460ff169050919050565b6103926108b0565b600073ffffffffffffffffffffffffffffffffffffffff168173ffffffffffffffffffffffffffffffffffffffff161415610402576040517f08c379a00000000000000000000000000000000000000000000000000000000081526004016103f990610d50565b60405180910390fd5b60018060008373ffffffffffffffffffffffffffffffffffffffff1673ffffffffffffffffffffffffffffffffffffffff16815260200190815260200160002060006101000a81548160ff0219169083151502179055508073ffffffffffffffffffffffffffffffffffffffff167f44d6d25963f097ad14f29f06854a01f575648a1ef82f30e562ccd3889717e33960405160405180910390a250565b6104a76108b0565b6104b1600061092e565b565b60008060009054906101000a900473ffffffffffffffffffffffffffffffffffffffff16905090565b600160003373ffffffffffffffffffffffffffffffffffffffff1673ffffffffffffffffffffffffffffffffffffffff16815260200190815260200160002060009054906101000a900460ff16610568576040517f08c379a000000000000000000000000000000000000000000000000000000000815260040161055f90610df0565b60405180910390fd5b600260008273ffffffffffffffffffffffffffffffffffffffff1673ffffffffffffffffffffffffffffffffffffffff16815260200190815260200160002060009054906101000a900460ff166105f4576040517f08c379a00000000000000000000000000000000000000000000000000000000081526004016105eb90610d70565b60405180910390fd5b6000600260008373ffffffffffffffffffffffffffffffffffffffff1673ffffffffffffffffffffffffffffffffffffffff16815260200190815260200160002060006101000a81548160ff0219169083151502179055508073ffffffffffffffffffffffffffffffffffffffff167f2c7559a85197fffa10af676df323d35fe6cf671f30429c4579c78dd1ccf9586d60405160405180910390a250565b600160003373ffffffffffffffffffffffffffffffffffffffff1673ffffffffffffffffffffffffffffffffffffffff16815260200190815260200160002060009054906101000a900460ff1661071e576040517f08c379a000000000000000000000000000000000000000000000000000000000815260040161071590610df0565b60405180910390fd5b600073ffffffffffffffffffffffffffffffffffffffff168173ffffffffffffffffffffffffffffffffffffffff16141561078e576040517f08c379a000000000000000000000000000000000000000000000000000000000815260040161078590610db0565b60405180910390fd5b6001600260008373ffffffffffffffffffffffffffffffffffffffff1673ffffffffffffffffffffffffffffffffffffffff16815260200190815260200160002060006101000a81548160ff0219169083151502179055508073ffffffffffffffffffffffffffffffffffffffff167f78687cacbc7aab66a797e797a40ba0019dea128950d05fd954f4506f9e3d8f0a60405160405180910390a250565b6108346108b0565b600073ffffffffffffffffffffffffffffffffffffffff168173ffffffffffffffffffffffffffffffffffffffff1614156108a4576040517f08c379a000000000000000000000000000000000000000000000000000000000815260040161089b90610d30565b60405180910390fd5b6108ad8161092e565b50565b6108b86109f2565b73ffffffffffffffffffffffffffffffffffffffff166108d66104b3565b73ffffffffffffffffffffffffffffffffffffffff161461092c576040517f08c379a000000000000000000000000000000000000000000000000000000000815260040161092390610dd0565b60405180910390fd5b565b60008060009054906101000a900473ffffffffffffffffffffffffffffffffffffffff169050816000806101000a81548173ffffffffffffffffffffffffffffffffffffffff021916908373ffffffffffffffffffffffffffffffffffffffff1602179055508173ffffffffffffffffffffffffffffffffffffffff168173ffffffffffffffffffffffffffffffffffffffff167f8be0079c531659141344cd1fd0a4f28419497f9722a3daafe3b4186f6b6457e060405160405180910390a35050565b600033905090565b600081359050610a0981610e5f565b92915050565b600060208284031215610a2157600080fd5b6000610a2f848285016109fa565b91505092915050565b610a4181610e21565b82525050565b610a5081610e33565b82525050565b6000610a63602683610e10565b91507f4f776e61626c653a206e6577206f776e657220697320746865207a65726f206160008301527f64647265737300000000000000000000000000000000000000000000000000006020830152604082019050919050565b6000610ac9602483610e10565b91507f416363657373436f6e74726f6c3a20496e76616c69642061646d696e2061646460008301527f72657373000000000000000000000000000000000000000000000000000000006020830152604082019050919050565b6000610b2f602f83610e10565b91507f416363657373436f6e74726f6c3a2041646472657373206973206e6f7420612060008301527f636f6e74656e742063726561746f7200000000000000000000000000000000006020830152604082019050919050565b6000610b95602683610e10565b91507f416363657373436f6e74726f6c3a2041646472657373206973206e6f7420616e60008301527f2061646d696e00000000000000000000000000000000000000000000000000006020830152604082019050919050565b6000610bfb602683610e10565b91507f416363657373436f6e74726f6c3a20496e76616c69642063726561746f72206160008301527f64647265737300000000000000000000000000000000000000000000000000006020830152604082019050919050565b6000610c61602083610e10565b91507f4f776e61626c653a2063616c6c6572206973206e6f7420746865206f776e65726000830152602082019050919050565b6000610ca1602583610e10565b91507f416363657373436f6e74726f6c3a2043616c6c6572206973206e6f7420616e2060008301527f61646d696e0000000000000000000000000000000000000000000000000000006020830152604082019050919050565b6000602082019050610d0f6000830184610a38565b92915050565b6000602082019050610d2a6000830184610a47565b92915050565b60006020820190508181036000830152610d4981610a56565b9050919050565b60006020820190508181036000830152610d6981610abc565b9050919050565b60006020820190508181036000830152610d8981610b22565b9050919050565b60006020820190508181036000830152610da981610b88565b9050919050565b60006020820190508181036000830152610dc981610bee565b9050919050565b60006020820190508181036000830152610de981610c54565b9050919050565b60006020820190508181036000830152610e0981610c94565b9050919050565b600082825260208201905092915050565b6000610e2c82610e3f565b9050919050565b60008115159050919050565b600073ffffffffffffffffffffffffffffffffffffffff82169050919050565b610e6881610e21565b8114610e7357600080fd5b5056fea2646970667358221220f12021315a3c53368781a79a465ed0f65c3b2e36e9293e2d6caad70177b90f0b64736f6c63430008000033",
  "immutableReferences": {},
  "source": "// SPDX-License-Identifier: MIT\r\npragma solidity ^0.8.0;\r\n\r\nimport \"@openzeppelin/contracts/access/Ownable.sol\";\r\n\r\ncontract AccessControl is Ownable {\r\n    // Mapping to track admin addresses\r\n    mapping(address => bool) private admins;\r\n\r\n    // Mapping to track content creator addresses\r\n    mapping(address => bool) private contentCreators;\r\n\r\n    // Events\r\n    event AdminAdded(address indexed admin);\r\n    event AdminRemoved(address indexed admin);\r\n    event ContentCreatorAdded(address indexed creator);\r\n    event ContentCreatorRemoved(address indexed creator);\r\n\r\n    // Modifier to allow only admins to perform certain actions\r\n    modifier onlyAdmin() {\r\n        require(admins[msg.sender], \"AccessControl: Caller is not an admin\");\r\n        _;\r\n    }\r\n\r\n    // Modifier to allow only content creators to perform certain actions\r\n    modifier onlyContentCreator() {\r\n        require(\r\n            contentCreators[msg.sender],\r\n            \"AccessControl: Caller is not a content creator\"\r\n        );\r\n        _;\r\n    }\r\nconstructor() Ownable() {\r\n    // Owner is the default admin\r\n    admins[msg.sender] = true;\r\n    emit AdminAdded(msg.sender);\r\n}\r\n\r\n    // Function to add a new admin (onlyOwner)\r\n    function addAdmin(address _admin) external onlyOwner {\r\n        require(_admin != address(0), \"AccessControl: Invalid admin address\");\r\n        admins[_admin] = true;\r\n        emit AdminAdded(_admin);\r\n    }\r\n\r\n    // Function to remove an admin (onlyOwner)\r\n    function removeAdmin(address _admin) external onlyOwner {\r\n        require(admins[_admin], \"AccessControl: Address is not an admin\");\r\n        admins[_admin] = false;\r\n        emit AdminRemoved(_admin);\r\n    }\r\n\r\n    // Function to add a content creator (onlyAdmin)\r\n    function addContentCreator(address _creator) external onlyAdmin {\r\n        require(\r\n            _creator != address(0),\r\n            \"AccessControl: Invalid creator address\"\r\n        );\r\n        contentCreators[_creator] = true;\r\n        emit ContentCreatorAdded(_creator);\r\n    }\r\n\r\n    // Function to remove a content creator (onlyAdmin)\r\n    function removeContentCreator(address _creator) external onlyAdmin {\r\n        require(\r\n            contentCreators[_creator],\r\n            \"AccessControl: Address is not a content creator\"\r\n        );\r\n        contentCreators[_creator] = false;\r\n        emit ContentCreatorRemoved(_creator);\r\n    }\r\n\r\n    // Check if an address is an admin\r\n    function isAdmin(address _account) external view returns (bool) {\r\n        return admins[_account];\r\n    }\r\n\r\n    // Check if an address is a content creator\r\n    function isContentCreator(address _account)\r\n        external\r\n        view\r\n        returns (bool)\r\n    {\r\n        return contentCreators[_account];\r\n    }\r\n}\r\n",
  "sourcePath": "A:\\Blockchainformedia\\contracts\\AccessControl.sol",
  "compiler": {
    "name": "solc",
    "version": "0.8.0+commit.c7dfd78e.Emscripten.clang"
  },
  "schemaVersion": "3.4.16",
  "updatedAt": "2024-09-30T16:19:09.423Z",
  "devdoc": {
    "kind": "dev",
    "methods": {
      "owner()": {
        "details": "Returns the address of the current owner."
      },
      "renounceOwnership()": {
        "details": "Leaves the contract without owner. It will not be possible to call `onlyOwner` functions anymore. Can only be called by the current owner. NOTE: Renouncing ownership will leave the contract without an owner, thereby removing any functionality that is only available to the owner."
      },
      "transferOwnership(address)": {
        "details": "Transfers ownership of the contract to a new account (`newOwner`). Can only be called by the current owner."
      }
    },
    "version": 1
  },
  "userdoc": {
    "kind": "user",
    "methods": {},
    "version": 1
  }
}