{
  "contractName": "Content",
  "abi": [
    {
      "inputs": [
        {
          "internalType": "contract IERC20",
          "name": "_paymentToken",
          "type": "address"
        },
        {
          "internalType": "uint256",
          "name": "_platformFee",
          "type": "uint256"
        },
        {
          "internalType": "address",
          "name": "_platformWallet",
          "type": "address"
        }
      ],
      "stateMutability": "nonpayable",
      "type": "constructor"
    },
    {
      "anonymous": false,
      "inputs": [
        {
          "indexed": true,
          "internalType": "address",
          "name": "admin",
          "type": "address"
        }
      ],
      "name": "AdminAdded",
      "type": "event"
    },
    {
      "anonymous": false,
      "inputs": [
        {
          "indexed": true,
          "internalType": "address",
          "name": "admin",
          "type": "address"
        }
      ],
      "name": "AdminRemoved",
      "type": "event"
    },
    {
      "anonymous": false,
      "inputs": [
        {
          "indexed": false,
          "internalType": "uint256",
          "name": "contentId",
          "type": "uint256"
        },
        {
          "indexed": true,
          "internalType": "address",
          "name": "creator",
          "type": "address"
        },
        {
          "indexed": false,
          "internalType": "string",
          "name": "ipfsHash",
          "type": "string"
        },
        {
          "indexed": false,
          "internalType": "uint256",
          "name": "price",
          "type": "uint256"
        }
      ],
      "name": "ContentCreated",
      "type": "event"
    },
    {
      "anonymous": false,
      "inputs": [
        {
          "indexed": true,
          "internalType": "address",
          "name": "creator",
          "type": "address"
        }
      ],
      "name": "ContentCreatorAdded",
      "type": "event"
    },
    {
      "anonymous": false,
      "inputs": [
        {
          "indexed": true,
          "internalType": "address",
          "name": "creator",
          "type": "address"
        }
      ],
      "name": "ContentCreatorRemoved",
      "type": "event"
    },
    {
      "anonymous": false,
      "inputs": [
        {
          "indexed": false,
          "internalType": "uint256",
          "name": "contentId",
          "type": "uint256"
        }
      ],
      "name": "ContentDeactivated",
      "type": "event"
    },
    {
      "anonymous": false,
      "inputs": [
        {
          "indexed": false,
          "internalType": "uint256",
          "name": "contentId",
          "type": "uint256"
        },
        {
          "indexed": true,
          "internalType": "address",
          "name": "buyer",
          "type": "address"
        },
        {
          "indexed": true,
          "internalType": "address",
          "name": "creator",
          "type": "address"
        },
        {
          "indexed": false,
          "internalType": "uint256",
          "name": "amount",
          "type": "uint256"
        }
      ],
      "name": "ContentPurchased",
      "type": "event"
    },
    {
      "anonymous": false,
      "inputs": [
        {
          "indexed": true,
          "internalType": "address",
          "name": "previousOwner",
          "type": "address"
        },
        {
          "indexed": true,
          "internalType": "address",
          "name": "newOwner",
          "type": "address"
        }
      ],
      "name": "OwnershipTransferred",
      "type": "event"
    },
    {
      "inputs": [
        {
          "internalType": "address",
          "name": "_admin",
          "type": "address"
        }
      ],
      "name": "addAdmin",
      "outputs": [],
      "stateMutability": "nonpayable",
      "type": "function"
    },
    {
      "inputs": [
        {
          "internalType": "address",
          "name": "_creator",
          "type": "address"
        }
      ],
      "name": "addContentCreator",
      "outputs": [],
      "stateMutability": "nonpayable",
      "type": "function"
    },
    {
      "inputs": [
        {
          "internalType": "uint256",
          "name": "",
          "type": "uint256"
        }
      ],
      "name": "contents",
      "outputs": [
        {
          "internalType": "uint256",
          "name": "id",
          "type": "uint256"
        },
        {
          "internalType": "address",
          "name": "creator",
          "type": "address"
        },
        {
          "internalType": "string",
          "name": "ipfsHash",
          "type": "string"
        },
        {
          "internalType": "uint256",
          "name": "price",
          "type": "uint256"
        },
        {
          "internalType": "uint256",
          "name": "timestamp",
          "type": "uint256"
        },
        {
          "internalType": "bool",
          "name": "isActive",
          "type": "bool"
        }
      ],
      "stateMutability": "view",
      "type": "function"
    },
    {
      "inputs": [
        {
          "internalType": "address",
          "name": "",
          "type": "address"
        },
        {
          "internalType": "uint256",
          "name": "",
          "type": "uint256"
        }
      ],
      "name": "creatorContents",
      "outputs": [
        {
          "internalType": "uint256",
          "name": "",
          "type": "uint256"
        }
      ],
      "stateMutability": "view",
      "type": "function"
    },
    {
      "inputs": [
        {
          "internalType": "address",
          "name": "_account",
          "type": "address"
        }
      ],
      "name": "isAdmin",
      "outputs": [
        {
          "internalType": "bool",
          "name": "",
          "type": "bool"
        }
      ],
      "stateMutability": "view",
      "type": "function"
    },
    {
      "inputs": [
        {
          "internalType": "address",
          "name": "_account",
          "type": "address"
        }
      ],
      "name": "isContentCreator",
      "outputs": [
        {
          "internalType": "bool",
          "name": "",
          "type": "bool"
        }
      ],
      "stateMutability": "view",
      "type": "function"
    },
    {
      "inputs": [],
      "name": "owner",
      "outputs": [
        {
          "internalType": "address",
          "name": "",
          "type": "address"
        }
      ],
      "stateMutability": "view",
      "type": "function"
    },
    {
      "inputs": [],
      "name": "paymentToken",
      "outputs": [
        {
          "internalType": "contract IERC20",
          "name": "",
          "type": "address"
        }
      ],
      "stateMutability": "view",
      "type": "function"
    },
    {
      "inputs": [],
      "name": "platformFee",
      "outputs": [
        {
          "internalType": "uint256",
          "name": "",
          "type": "uint256"
        }
      ],
      "stateMutability": "view",
      "type": "function"
    },
    {
      "inputs": [],
      "name": "platformWallet",
      "outputs": [
        {
          "internalType": "address",
          "name": "",
          "type": "address"
        }
      ],
      "stateMutability": "view",
      "type": "function"
    },
    {
      "inputs": [
        {
          "internalType": "address",
          "name": "_admin",
          "type": "address"
        }
      ],
      "name": "removeAdmin",
      "outputs": [],
      "stateMutability": "nonpayable",
      "type": "function"
    },
    {
      "inputs": [
        {
          "internalType": "address",
          "name": "_creator",
          "type": "address"
        }
      ],
      "name": "removeContentCreator",
      "outputs": [],
      "stateMutability": "nonpayable",
      "type": "function"
    },
    {
      "inputs": [],
      "name": "renounceOwnership",
      "outputs": [],
      "stateMutability": "nonpayable",
      "type": "function"
    },
    {
      "inputs": [
        {
          "internalType": "address",
          "name": "newOwner",
          "type": "address"
        }
      ],
      "name": "transferOwnership",
      "outputs": [],
      "stateMutability": "nonpayable",
      "type": "function"
    },
    {
      "inputs": [
        {
          "internalType": "string",
          "name": "_ipfsHash",
          "type": "string"
        },
        {
          "internalType": "uint256",
          "name": "_price",
          "type": "uint256"
        }
      ],
      "name": "createContent",
      "outputs": [],
      "stateMutability": "nonpayable",
      "type": "function"
    },
    {
      "inputs": [
        {
          "internalType": "uint256",
          "name": "contentId",
          "type": "uint256"
        }
      ],
      "name": "purchaseContent",
      "outputs": [],
      "stateMutability": "nonpayable",
      "type": "function"
    },
    {
      "inputs": [
        {
          "internalType": "uint256",
          "name": "contentId",
          "type": "uint256"
        }
      ],
      "name": "deactivateContent",
      "outputs": [],
      "stateMutability": "nonpayable",
      "type": "function"
    },
    {
      "inputs": [
        {
          "internalType": "uint256",
          "name": "contentId",
          "type": "uint256"
        }
      ],
      "name": "verifyContent",
      "outputs": [
        {
          "internalType": "address",
          "name": "creator",
          "type": "address"
        },
        {
          "internalType": "uint256",
          "name": "timestamp",
          "type": "uint256"
        },
        {
          "internalType": "string",
          "name": "ipfsHash",
          "type": "string"
        }
      ],
      "stateMutability": "view",
      "type": "function"
    },
    {
      "inputs": [
        {
          "internalType": "uint256",
          "name": "newFee",
          "type": "uint256"
        }
      ],
      "name": "updatePlatformFee",
      "outputs": [],
      "stateMutability": "nonpayable",
      "type": "function"
    },
    {
      "inputs": [
        {
          "internalType": "address",
          "name": "newWallet",
          "type": "address"
        }
      ],
      "name": "updatePlatformWallet",
      "outputs": [],
      "stateMutability": "nonpayable",
      "type": "function"
    }
  ],
  "bytecode": "0x60806040523480156200001157600080fd5b506040516200295638038062002956833981810160405281019062000037919062000294565b620000576200004b6200018360201b60201c565b6200018b60201b60201c565b60018060003373ffffffffffffffffffffffffffffffffffffffff1673ffffffffffffffffffffffffffffffffffffffff16815260200190815260200160002060006101000a81548160ff0219169083151502179055503373ffffffffffffffffffffffffffffffffffffffff167f44d6d25963f097ad14f29f06854a01f575648a1ef82f30e562ccd3889717e33960405160405180910390a282600460006101000a81548173ffffffffffffffffffffffffffffffffffffffff021916908373ffffffffffffffffffffffffffffffffffffffff1602179055508160058190555080600660006101000a81548173ffffffffffffffffffffffffffffffffffffffff021916908373ffffffffffffffffffffffffffffffffffffffff1602179055505050506200038a565b600033905090565b60008060009054906101000a900473ffffffffffffffffffffffffffffffffffffffff169050816000806101000a81548173ffffffffffffffffffffffffffffffffffffffff021916908373ffffffffffffffffffffffffffffffffffffffff1602179055508173ffffffffffffffffffffffffffffffffffffffff168173ffffffffffffffffffffffffffffffffffffffff167f8be0079c531659141344cd1fd0a4f28419497f9722a3daafe3b4186f6b6457e060405160405180910390a35050565b60008151905062000260816200033c565b92915050565b600081519050620002778162000356565b92915050565b6000815190506200028e8162000370565b92915050565b600080600060608486031215620002aa57600080fd5b6000620002ba8682870162000266565b9350506020620002cd868287016200027d565b9250506040620002e0868287016200024f565b9150509250925092565b6000620002f78262000312565b9050919050565b60006200030b82620002ea565b9050919050565b600073ffffffffffffffffffffffffffffffffffffffff82169050919050565b6000819050919050565b6200034781620002ea565b81146200035357600080fd5b50565b6200036181620002fe565b81146200036d57600080fd5b50565b6200037b8162000332565b81146200038757600080fd5b50565b6125bc806200039a6000396000f3fe608060405234801561001057600080fd5b506004361061012c5760003560e01c80638da5cb5b116100ad578063b5ecf91211610071578063b5ecf91214610305578063f2d0811f1461033a578063f2fde38b14610356578063fa2af9da14610372578063fd2a176e146103905761012c565b80638da5cb5b14610277578063aa0b598814610295578063ada4ef30146102b1578063af91985e146102cd578063b0c04d46146102e95761012c565b80633013ce29116100f45780633013ce29146101d357806332f41bf6146101f1578063401a9685146102215780637048027514610251578063715018a61461026d5761012c565b80631785f53c1461013157806324d7806c1461014d57806326232a2e1461017d57806327b697f01461019b57806328f2ac28146101b7575b600080fd5b61014b6004803603810190610146919061199e565b6103c2565b005b6101676004803603810190610162919061199e565b6104f4565b6040516101749190611fb8565b60405180910390f35b61018561054a565b604051610192919061216e565b60405180910390f35b6101b560048036038101906101b09190611a2c565b610550565b005b6101d160048036038101906101cc9190611a80565b610766565b005b6101db610bbd565b6040516101e89190611fd3565b60405180910390f35b61020b6004803603810190610206919061199e565b610be3565b6040516102189190611fb8565b60405180910390f35b61023b600480360381019061023691906119c7565b610c39565b604051610248919061216e565b60405180910390f35b61026b6004803603810190610266919061199e565b610c6a565b005b610275610d7f565b005b61027f610d93565b60405161028c9190611f28565b60405180910390f35b6102af60048036038101906102aa9190611a80565b610dbc565b005b6102cb60048036038101906102c6919061199e565b610e52565b005b6102e760048036038101906102e2919061199e565b610f22565b005b61030360048036038101906102fe919061199e565b6110d8565b005b61031f600480360381019061031a9190611a80565b611272565b60405161033196959493929190612189565b60405180910390f35b610354600480360381019061034f9190611a80565b611363565b005b610370600480360381019061036b919061199e565b6114d7565b005b61037a61155b565b6040516103879190611f28565b60405180910390f35b6103aa60048036038101906103a59190611a80565b611581565b6040516103b993929190611f7a565b60405180910390f35b6103ca6116e6565b600160008273ffffffffffffffffffffffffffffffffffffffff1673ffffffffffffffffffffffffffffffffffffffff16815260200190815260200160002060009054906101000a900460ff16610456576040517f08c379a000000000000000000000000000000000000000000000000000000000815260040161044d9061208e565b60405180910390fd5b6000600160008373ffffffffffffffffffffffffffffffffffffffff1673ffffffffffffffffffffffffffffffffffffffff16815260200190815260200160002060006101000a81548160ff0219169083151502179055508073ffffffffffffffffffffffffffffffffffffffff167fa3b62bc36326052d97ea62d63c3d60308ed4c3ea8ac079dd8499f1e9c4f80c0f60405160405180910390a250565b6000600160008373ffffffffffffffffffffffffffffffffffffffff1673ffffffffffffffffffffffffffffffffffffffff16815260200190815260200160002060009054906101000a900460ff169050919050565b60055481565b60008111610593576040517f08c379a000000000000000000000000000000000000000000000000000000000815260040161058a9061214e565b60405180910390fd5b61059d6003611764565b60006105a9600361177a565b90506040518060c001604052808281526020013373ffffffffffffffffffffffffffffffffffffffff16815260200184815260200183815260200142815260200160011515815250600760008381526020019081526020016000206000820151816000015560208201518160010160006101000a81548173ffffffffffffffffffffffffffffffffffffffff021916908373ffffffffffffffffffffffffffffffffffffffff1602179055506040820151816002019080519060200190610671929190611854565b50606082015181600301556080820151816004015560a08201518160050160006101000a81548160ff021916908315150217905550905050600860003373ffffffffffffffffffffffffffffffffffffffff1673ffffffffffffffffffffffffffffffffffffffff1681526020019081526020016000208190806001815401808255809150506001900390600052602060002001600090919091909150553373ffffffffffffffffffffffffffffffffffffffff167f412c27a7318aac9979dd1ff80a6b3eb3bc35c9a8c22b7b75d7959605180ab9ac828585604051610759939291906121f1565b60405180910390a2505050565b806007600082815260200190815260200160002060050160009054906101000a900460ff166107ca576040517f08c379a00000000000000000000000000000000000000000000000000000000081526004016107c190611fee565b60405180910390fd5b6000600760008481526020019081526020016000206040518060c0016040529081600082015481526020016001820160009054906101000a900473ffffffffffffffffffffffffffffffffffffffff1673ffffffffffffffffffffffffffffffffffffffff1673ffffffffffffffffffffffffffffffffffffffff16815260200160028201805461085a90612442565b80601f016020809104026020016040519081016040528092919081815260200182805461088690612442565b80156108d35780601f106108a8576101008083540402835291602001916108d3565b820191906000526020600020905b8154815290600101906020018083116108b657829003601f168201915b5050505050815260200160038201548152602001600482015481526020016005820160009054906101000a900460ff161515151581525050905060008160600151905060006064600554836109289190612306565b61093291906122d5565b9050600081836109429190612360565b9050600460009054906101000a900473ffffffffffffffffffffffffffffffffffffffff1673ffffffffffffffffffffffffffffffffffffffff166323b872dd33600660009054906101000a900473ffffffffffffffffffffffffffffffffffffffff16856040518463ffffffff1660e01b81526004016109c593929190611f43565b602060405180830381600087803b1580156109df57600080fd5b505af11580156109f3573d6000803e3d6000fd5b505050506040513d601f19601f82011682018060405250810190610a179190611a03565b610a56576040517f08c379a0000000000000000000000000000000000000000000000000000000008152600401610a4d9061204e565b60405180910390fd5b600460009054906101000a900473ffffffffffffffffffffffffffffffffffffffff1673ffffffffffffffffffffffffffffffffffffffff166323b872dd338660200151846040518463ffffffff1660e01b8152600401610ab993929190611f43565b602060405180830381600087803b158015610ad357600080fd5b505af1158015610ae7573d6000803e3d6000fd5b505050506040513d601f19601f82011682018060405250810190610b0b9190611a03565b610b4a576040517f08c379a0000000000000000000000000000000000000000000000000000000008152600401610b419061210e565b60405180910390fd5b836020015173ffffffffffffffffffffffffffffffffffffffff163373ffffffffffffffffffffffffffffffffffffffff167fc811c19bfae6d1db7d73b36678b8cdd72e1617d50e39f87a7593c5079381fd288886604051610bad92919061222f565b60405180910390a3505050505050565b600460009054906101000a900473ffffffffffffffffffffffffffffffffffffffff1681565b6000600260008373ffffffffffffffffffffffffffffffffffffffff1673ffffffffffffffffffffffffffffffffffffffff16815260200190815260200160002060009054906101000a900460ff169050919050565b60086020528160005260406000208181548110610c5557600080fd5b90600052602060002001600091509150505481565b610c726116e6565b600073ffffffffffffffffffffffffffffffffffffffff168173ffffffffffffffffffffffffffffffffffffffff161415610ce2576040517f08c379a0000000000000000000000000000000000000000000000000000000008152600401610cd99061202e565b60405180910390fd5b60018060008373ffffffffffffffffffffffffffffffffffffffff1673ffffffffffffffffffffffffffffffffffffffff16815260200190815260200160002060006101000a81548160ff0219169083151502179055508073ffffffffffffffffffffffffffffffffffffffff167f44d6d25963f097ad14f29f06854a01f575648a1ef82f30e562ccd3889717e33960405160405180910390a250565b610d876116e6565b610d916000611788565b565b60008060009054906101000a900473ffffffffffffffffffffffffffffffffffffffff16905090565b600160003373ffffffffffffffffffffffffffffffffffffffff1673ffffffffffffffffffffffffffffffffffffffff16815260200190815260200160002060009054906101000a900460ff16610e48576040517f08c379a0000000000000000000000000000000000000000000000000000000008152600401610e3f906120ee565b60405180910390fd5b8060058190555050565b600160003373ffffffffffffffffffffffffffffffffffffffff1673ffffffffffffffffffffffffffffffffffffffff16815260200190815260200160002060009054906101000a900460ff16610ede576040517f08c379a0000000000000000000000000000000000000000000000000000000008152600401610ed5906120ee565b60405180910390fd5b80600660006101000a81548173ffffffffffffffffffffffffffffffffffffffff021916908373ffffffffffffffffffffffffffffffffffffffff16021790555050565b600160003373ffffffffffffffffffffffffffffffffffffffff1673ffffffffffffffffffffffffffffffffffffffff16815260200190815260200160002060009054906101000a900460ff16610fae576040517f08c379a0000000000000000000000000000000000000000000000000000000008152600401610fa5906120ee565b60405180910390fd5b600260008273ffffffffffffffffffffffffffffffffffffffff1673ffffffffffffffffffffffffffffffffffffffff16815260200190815260200160002060009054906101000a900460ff1661103a576040517f08c379a00000000000000000000000000000000000000000000000000000000081526004016110319061206e565b60405180910390fd5b6000600260008373ffffffffffffffffffffffffffffffffffffffff1673ffffffffffffffffffffffffffffffffffffffff16815260200190815260200160002060006101000a81548160ff0219169083151502179055508073ffffffffffffffffffffffffffffffffffffffff167f2c7559a85197fffa10af676df323d35fe6cf671f30429c4579c78dd1ccf9586d60405160405180910390a250565b600160003373ffffffffffffffffffffffffffffffffffffffff1673ffffffffffffffffffffffffffffffffffffffff16815260200190815260200160002060009054906101000a900460ff16611164576040517f08c379a000000000000000000000000000000000000000000000000000000000815260040161115b906120ee565b60405180910390fd5b600073ffffffffffffffffffffffffffffffffffffffff168173ffffffffffffffffffffffffffffffffffffffff1614156111d4576040517f08c379a00000000000000000000000000000000000000000000000000000000081526004016111cb906120ae565b60405180910390fd5b6001600260008373ffffffffffffffffffffffffffffffffffffffff1673ffffffffffffffffffffffffffffffffffffffff16815260200190815260200160002060006101000a81548160ff0219169083151502179055508073ffffffffffffffffffffffffffffffffffffffff167f78687cacbc7aab66a797e797a40ba0019dea128950d05fd954f4506f9e3d8f0a60405160405180910390a250565b60076020528060005260406000206000915090508060000154908060010160009054906101000a900473ffffffffffffffffffffffffffffffffffffffff16908060020180546112c190612442565b80601f01602080910402602001604051908101604052809291908181526020018280546112ed90612442565b801561133a5780601f1061130f5761010080835404028352916020019161133a565b820191906000526020600020905b81548152906001019060200180831161131d57829003601f168201915b5050505050908060030154908060040154908060050160009054906101000a900460ff16905086565b803373ffffffffffffffffffffffffffffffffffffffff166007600083815260200190815260200160002060010160009054906101000a900473ffffffffffffffffffffffffffffffffffffffff1673ffffffffffffffffffffffffffffffffffffffff1614611408576040517f08c379a00000000000000000000000000000000000000000000000000000000081526004016113ff9061212e565b60405180910390fd5b816007600082815260200190815260200160002060050160009054906101000a900460ff1661146c576040517f08c379a000000000000000000000000000000000000000000000000000000000815260040161146390611fee565b60405180910390fd5b60006007600085815260200190815260200160002060050160006101000a81548160ff0219169083151502179055507f87eca800c5aafd6414b5e7f7f64649c6a947da66c7fdcbaa2b856462d388e25b836040516114ca919061216e565b60405180910390a1505050565b6114df6116e6565b600073ffffffffffffffffffffffffffffffffffffffff168173ffffffffffffffffffffffffffffffffffffffff16141561154f576040517f08c379a00000000000000000000000000000000000000000000000000000000081526004016115469061200e565b60405180910390fd5b61155881611788565b50565b600660009054906101000a900473ffffffffffffffffffffffffffffffffffffffff1681565b60008060606000600760008681526020019081526020016000206040518060c0016040529081600082015481526020016001820160009054906101000a900473ffffffffffffffffffffffffffffffffffffffff1673ffffffffffffffffffffffffffffffffffffffff1673ffffffffffffffffffffffffffffffffffffffff16815260200160028201805461161690612442565b80601f016020809104026020016040519081016040528092919081815260200182805461164290612442565b801561168f5780601f106116645761010080835404028352916020019161168f565b820191906000526020600020905b81548152906001019060200180831161167257829003601f168201915b5050505050815260200160038201548152602001600482015481526020016005820160009054906101000a900460ff1615151515815250509050806020015181608001518260400151935093509350509193909250565b6116ee61184c565b73ffffffffffffffffffffffffffffffffffffffff1661170c610d93565b73ffffffffffffffffffffffffffffffffffffffff1614611762576040517f08c379a0000000000000000000000000000000000000000000000000000000008152600401611759906120ce565b60405180910390fd5b565b6001816000016000828254019250508190555050565b600081600001549050919050565b60008060009054906101000a900473ffffffffffffffffffffffffffffffffffffffff169050816000806101000a81548173ffffffffffffffffffffffffffffffffffffffff021916908373ffffffffffffffffffffffffffffffffffffffff1602179055508173ffffffffffffffffffffffffffffffffffffffff168173ffffffffffffffffffffffffffffffffffffffff167f8be0079c531659141344cd1fd0a4f28419497f9722a3daafe3b4186f6b6457e060405160405180910390a35050565b600033905090565b82805461186090612442565b90600052602060002090601f01602090048101928261188257600085556118c9565b82601f1061189b57805160ff19168380011785556118c9565b828001600101855582156118c9579182015b828111156118c85782518255916020019190600101906118ad565b5b5090506118d691906118da565b5090565b5b808211156118f35760008160009055506001016118db565b5090565b600061190a61190584612289565b612258565b90508281526020810184848401111561192257600080fd5b61192d848285612400565b509392505050565b60008135905061194481612541565b92915050565b60008151905061195981612558565b92915050565b600082601f83011261197057600080fd5b81356119808482602086016118f7565b91505092915050565b6000813590506119988161256f565b92915050565b6000602082840312156119b057600080fd5b60006119be84828501611935565b91505092915050565b600080604083850312156119da57600080fd5b60006119e885828601611935565b92505060206119f985828601611989565b9150509250929050565b600060208284031215611a1557600080fd5b6000611a238482850161194a565b91505092915050565b60008060408385031215611a3f57600080fd5b600083013567ffffffffffffffff811115611a5957600080fd5b611a658582860161195f565b9250506020611a7685828601611989565b9150509250929050565b600060208284031215611a9257600080fd5b6000611aa084828501611989565b91505092915050565b611ab281612394565b82525050565b611ac1816123a6565b82525050565b611ad0816123dc565b82525050565b6000611ae1826122b9565b611aeb81856122c4565b9350611afb81856020860161240f565b611b0481612530565b840191505092915050565b6000611b1c601a836122c4565b91507f5468697320636f6e74656e74206973206e6f74206163746976650000000000006000830152602082019050919050565b6000611b5c6026836122c4565b91507f4f776e61626c653a206e6577206f776e657220697320746865207a65726f206160008301527f64647265737300000000000000000000000000000000000000000000000000006020830152604082019050919050565b6000611bc26024836122c4565b91507f416363657373436f6e74726f6c3a20496e76616c69642061646d696e2061646460008301527f72657373000000000000000000000000000000000000000000000000000000006020830152604082019050919050565b6000611c28601c836122c4565b91507f506c6174666f726d20666565207472616e73666572206661696c6564000000006000830152602082019050919050565b6000611c68602f836122c4565b91507f416363657373436f6e74726f6c3a2041646472657373206973206e6f7420612060008301527f636f6e74656e742063726561746f7200000000000000000000000000000000006020830152604082019050919050565b6000611cce6026836122c4565b91507f416363657373436f6e74726f6c3a2041646472657373206973206e6f7420616e60008301527f2061646d696e00000000000000000000000000000000000000000000000000006020830152604082019050919050565b6000611d346026836122c4565b91507f416363657373436f6e74726f6c3a20496e76616c69642063726561746f72206160008301527f64647265737300000000000000000000000000000000000000000000000000006020830152604082019050919050565b6000611d9a6020836122c4565b91507f4f776e61626c653a2063616c6c6572206973206e6f7420746865206f776e65726000830152602082019050919050565b6000611dda6025836122c4565b91507f416363657373436f6e74726f6c3a2043616c6c6572206973206e6f7420616e2060008301527f61646d696e0000000000000000000000000000000000000000000000000000006020830152604082019050919050565b6000611e40601f836122c4565b91507f43726561746f72207061796d656e74207472616e73666572206661696c6564006000830152602082019050919050565b6000611e806030836122c4565b91507f4f6e6c792074686520636f6e74656e742063726561746f722063616e2070657260008301527f666f726d207468697320616374696f6e000000000000000000000000000000006020830152604082019050919050565b6000611ee6601c836122c4565b91507f5072696365206d7573742062652067726561746572207468616e2030000000006000830152602082019050919050565b611f22816123d2565b82525050565b6000602082019050611f3d6000830184611aa9565b92915050565b6000606082019050611f586000830186611aa9565b611f656020830185611aa9565b611f726040830184611f19565b949350505050565b6000606082019050611f8f6000830186611aa9565b611f9c6020830185611f19565b8181036040830152611fae8184611ad6565b9050949350505050565b6000602082019050611fcd6000830184611ab8565b92915050565b6000602082019050611fe86000830184611ac7565b92915050565b6000602082019050818103600083015261200781611b0f565b9050919050565b6000602082019050818103600083015261202781611b4f565b9050919050565b6000602082019050818103600083015261204781611bb5565b9050919050565b6000602082019050818103600083015261206781611c1b565b9050919050565b6000602082019050818103600083015261208781611c5b565b9050919050565b600060208201905081810360008301526120a781611cc1565b9050919050565b600060208201905081810360008301526120c781611d27565b9050919050565b600060208201905081810360008301526120e781611d8d565b9050919050565b6000602082019050818103600083015261210781611dcd565b9050919050565b6000602082019050818103600083015261212781611e33565b9050919050565b6000602082019050818103600083015261214781611e73565b9050919050565b6000602082019050818103600083015261216781611ed9565b9050919050565b60006020820190506121836000830184611f19565b92915050565b600060c08201905061219e6000830189611f19565b6121ab6020830188611aa9565b81810360408301526121bd8187611ad6565b90506121cc6060830186611f19565b6121d96080830185611f19565b6121e660a0830184611ab8565b979650505050505050565b60006060820190506122066000830186611f19565b81810360208301526122188185611ad6565b90506122276040830184611f19565b949350505050565b60006040820190506122446000830185611f19565b6122516020830184611f19565b9392505050565b6000604051905081810181811067ffffffffffffffff8211171561227f5761227e612501565b5b8060405250919050565b600067ffffffffffffffff8211156122a4576122a3612501565b5b601f19601f8301169050602081019050919050565b600081519050919050565b600082825260208201905092915050565b60006122e0826123d2565b91506122eb836123d2565b9250826122fb576122fa6124a3565b5b828204905092915050565b6000612311826123d2565b915061231c836123d2565b9250817fffffffffffffffffffffffffffffffffffffffffffffffffffffffffffffffff048311821515161561235557612354612474565b5b828202905092915050565b600061236b826123d2565b9150612376836123d2565b92508282101561238957612388612474565b5b828203905092915050565b600061239f826123b2565b9050919050565b60008115159050919050565b600073ffffffffffffffffffffffffffffffffffffffff82169050919050565b6000819050919050565b60006123e7826123ee565b9050919050565b60006123f9826123b2565b9050919050565b82818337600083830152505050565b60005b8381101561242d578082015181840152602081019050612412565b8381111561243c576000848401525b50505050565b6000600282049050600182168061245a57607f821691505b6020821081141561246e5761246d6124d2565b5b50919050565b7f4e487b7100000000000000000000000000000000000000000000000000000000600052601160045260246000fd5b7f4e487b7100000000000000000000000000000000000000000000000000000000600052601260045260246000fd5b7f4e487b7100000000000000000000000000000000000000000000000000000000600052602260045260246000fd5b7f4e487b7100000000000000000000000000000000000000000000000000000000600052604160045260246000fd5b6000601f19601f8301169050919050565b61254a81612394565b811461255557600080fd5b50565b612561816123a6565b811461256c57600080fd5b50565b612578816123d2565b811461258357600080fd5b5056fea2646970667358221220d5a4e204bcde901874406c8c0fd4ab41dd6f821a31de04eedb0bec7e3576030664736f6c63430008000033",
  "immutableReferences": {},
  "source": "// SPDX-License-Identifier: MIT\r\npragma solidity ^0.8.0;\r\n\r\nimport \"./AccessControl.sol\"; // Role-based access for content creators\r\nimport \"@openzeppelin/contracts/token/ERC20/IERC20.sol\"; // Use ERC-20 for payment tokens\r\nimport \"@openzeppelin/contracts/utils/Counters.sol\"; // Track content IDs\r\n\r\ncontract Content is AccessControl {\r\n    using Counters for Counters.Counter;\r\n    Counters.Counter private _contentIds;\r\n\r\n    IERC20 public paymentToken; // ERC-20 token for compensation\r\n    uint256 public platformFee; // Fee percentage taken by platform\r\n    address public platformWallet; // Platform wallet for fees\r\n\r\n    struct ContentData {\r\n        uint256 id;\r\n        address creator;\r\n        string ipfsHash; // IPFS hash for storing the content metadata (title, description, etc.)\r\n        uint256 price; // Price of the content in tokens\r\n        uint256 timestamp; // Creation time for IP verification\r\n        bool isActive;\r\n    }\r\n\r\n    // Mapping from content ID to content data\r\n    mapping(uint256 => ContentData) public contents;\r\n    // Mapping from creator to list of their content IDs\r\n    mapping(address => uint256[]) public creatorContents;\r\n\r\n    // Events\r\n    event ContentCreated(uint256 contentId, address indexed creator, string ipfsHash, uint256 price);\r\n    event ContentPurchased(uint256 contentId, address indexed buyer, address indexed creator, uint256 amount);\r\n    event ContentDeactivated(uint256 contentId);\r\n\r\n    constructor(IERC20 _paymentToken, uint256 _platformFee, address _platformWallet) {\r\n        paymentToken = _paymentToken;\r\n        platformFee = _platformFee;\r\n        platformWallet = _platformWallet;\r\n    }\r\n\r\n    // Modifier to check if the caller is the creator of the content\r\n    modifier onlyCreator(uint256 contentId) {\r\n        require(contents[contentId].creator == msg.sender, \"Only the content creator can perform this action\");\r\n        _;\r\n    }\r\n\r\n    // Modifier to check if the content is active\r\n    modifier isActiveContent(uint256 contentId) {\r\n        require(contents[contentId].isActive, \"This content is not active\");\r\n        _;\r\n    }\r\n\r\n    // Create new content and store its metadata on IPFS\r\n    function createContent(string memory _ipfsHash, uint256 _price) external {\r\n        require(_price > 0, \"Price must be greater than 0\");\r\n\r\n        _contentIds.increment();\r\n        uint256 newContentId = _contentIds.current();\r\n\r\n        contents[newContentId] = ContentData({\r\n            id: newContentId,\r\n            creator: msg.sender,\r\n            ipfsHash: _ipfsHash,\r\n            price: _price,\r\n            timestamp: block.timestamp,\r\n            isActive: true\r\n        });\r\n\r\n        creatorContents[msg.sender].push(newContentId);\r\n        emit ContentCreated(newContentId, msg.sender, _ipfsHash, _price);\r\n    }\r\n\r\n    // Purchase content and compensate the creator\r\n    function purchaseContent(uint256 contentId) external isActiveContent(contentId) {\r\n        ContentData memory content = contents[contentId];\r\n        uint256 totalPrice = content.price;\r\n\r\n        // Calculate platform fee\r\n        uint256 feeAmount = (totalPrice * platformFee) / 100;\r\n        uint256 creatorAmount = totalPrice - feeAmount;\r\n\r\n        // Transfer tokens\r\n        require(paymentToken.transferFrom(msg.sender, platformWallet, feeAmount), \"Platform fee transfer failed\");\r\n        require(paymentToken.transferFrom(msg.sender, content.creator, creatorAmount), \"Creator payment transfer failed\");\r\n\r\n        emit ContentPurchased(contentId, msg.sender, content.creator, totalPrice);\r\n    }\r\n\r\n    // Deactivate content\r\n    function deactivateContent(uint256 contentId) external onlyCreator(contentId) isActiveContent(contentId) {\r\n        contents[contentId].isActive = false;\r\n        emit ContentDeactivated(contentId);\r\n    }\r\n\r\n    // Function to verify content ownership and timestamp\r\n    function verifyContent(uint256 contentId) external view returns (address creator, uint256 timestamp, string memory ipfsHash) {\r\n        ContentData memory content = contents[contentId];\r\n        return (content.creator, content.timestamp, content.ipfsHash);\r\n    }\r\n\r\n    // Platform fee management\r\n    function updatePlatformFee(uint256 newFee) external onlyAdmin {\r\n        platformFee = newFee;\r\n    }\r\n\r\n    function updatePlatformWallet(address newWallet) external onlyAdmin {\r\n        platformWallet = newWallet;\r\n    }\r\n}\r\n\r\n",
  "sourcePath": "A:\\Blockchainformedia\\contracts\\Content.sol",
  "compiler": {
    "name": "solc",
    "version": "0.8.0+commit.c7dfd78e.Emscripten.clang"
  },
  "schemaVersion": "3.4.16",
  "updatedAt": "2024-09-30T16:19:09.429Z",
  "devdoc": {
    "kind": "dev",
    "methods": {
      "owner()": {
        "details": "Returns the address of the current owner."
      },
      "renounceOwnership()": {
        "details": "Leaves the contract without owner. It will not be possible to call `onlyOwner` functions anymore. Can only be called by the current owner. NOTE: Renouncing ownership will leave the contract without an owner, thereby removing any functionality that is only available to the owner."
      },
      "transferOwnership(address)": {
        "details": "Transfers ownership of the contract to a new account (`newOwner`). Can only be called by the current owner."
      }
    },
    "version": 1
  },
  "userdoc": {
    "kind": "user",
    "methods": {},
    "version": 1
  }
}