{
  "contractName": "Payment",
  "abi": [
    {
      "inputs": [
        {
          "internalType": "contract IERC20",
          "name": "_paymentToken",
          "type": "address"
        },
        {
          "internalType": "uint256",
          "name": "_platformFee",
          "type": "uint256"
        },
        {
          "internalType": "address",
          "name": "_platformWallet",
          "type": "address"
        }
      ],
      "stateMutability": "nonpayable",
      "type": "constructor"
    },
    {
      "anonymous": false,
      "inputs": [
        {
          "indexed": true,
          "internalType": "address",
          "name": "admin",
          "type": "address"
        }
      ],
      "name": "AdminAdded",
      "type": "event"
    },
    {
      "anonymous": false,
      "inputs": [
        {
          "indexed": true,
          "internalType": "address",
          "name": "admin",
          "type": "address"
        }
      ],
      "name": "AdminRemoved",
      "type": "event"
    },
    {
      "anonymous": false,
      "inputs": [
        {
          "indexed": true,
          "internalType": "address",
          "name": "creator",
          "type": "address"
        }
      ],
      "name": "ContentCreatorAdded",
      "type": "event"
    },
    {
      "anonymous": false,
      "inputs": [
        {
          "indexed": true,
          "internalType": "address",
          "name": "creator",
          "type": "address"
        }
      ],
      "name": "ContentCreatorRemoved",
      "type": "event"
    },
    {
      "anonymous": false,
      "inputs": [
        {
          "indexed": true,
          "internalType": "address",
          "name": "previousOwner",
          "type": "address"
        },
        {
          "indexed": true,
          "internalType": "address",
          "name": "newOwner",
          "type": "address"
        }
      ],
      "name": "OwnershipTransferred",
      "type": "event"
    },
    {
      "anonymous": false,
      "inputs": [
        {
          "indexed": true,
          "internalType": "address",
          "name": "buyer",
          "type": "address"
        },
        {
          "indexed": true,
          "internalType": "address",
          "name": "creator",
          "type": "address"
        },
        {
          "indexed": false,
          "internalType": "uint256",
          "name": "amount",
          "type": "uint256"
        },
        {
          "indexed": false,
          "internalType": "uint256",
          "name": "feeAmount",
          "type": "uint256"
        }
      ],
      "name": "PaymentProcessed",
      "type": "event"
    },
    {
      "anonymous": false,
      "inputs": [
        {
          "indexed": false,
          "internalType": "uint256",
          "name": "oldFee",
          "type": "uint256"
        },
        {
          "indexed": false,
          "internalType": "uint256",
          "name": "newFee",
          "type": "uint256"
        }
      ],
      "name": "PlatformFeeUpdated",
      "type": "event"
    },
    {
      "anonymous": false,
      "inputs": [
        {
          "indexed": false,
          "internalType": "address",
          "name": "oldWallet",
          "type": "address"
        },
        {
          "indexed": false,
          "internalType": "address",
          "name": "newWallet",
          "type": "address"
        }
      ],
      "name": "PlatformWalletUpdated",
      "type": "event"
    },
    {
      "inputs": [
        {
          "internalType": "address",
          "name": "_admin",
          "type": "address"
        }
      ],
      "name": "addAdmin",
      "outputs": [],
      "stateMutability": "nonpayable",
      "type": "function"
    },
    {
      "inputs": [
        {
          "internalType": "address",
          "name": "_creator",
          "type": "address"
        }
      ],
      "name": "addContentCreator",
      "outputs": [],
      "stateMutability": "nonpayable",
      "type": "function"
    },
    {
      "inputs": [
        {
          "internalType": "address",
          "name": "_account",
          "type": "address"
        }
      ],
      "name": "isAdmin",
      "outputs": [
        {
          "internalType": "bool",
          "name": "",
          "type": "bool"
        }
      ],
      "stateMutability": "view",
      "type": "function"
    },
    {
      "inputs": [
        {
          "internalType": "address",
          "name": "_account",
          "type": "address"
        }
      ],
      "name": "isContentCreator",
      "outputs": [
        {
          "internalType": "bool",
          "name": "",
          "type": "bool"
        }
      ],
      "stateMutability": "view",
      "type": "function"
    },
    {
      "inputs": [],
      "name": "owner",
      "outputs": [
        {
          "internalType": "address",
          "name": "",
          "type": "address"
        }
      ],
      "stateMutability": "view",
      "type": "function"
    },
    {
      "inputs": [],
      "name": "paymentToken",
      "outputs": [
        {
          "internalType": "contract IERC20",
          "name": "",
          "type": "address"
        }
      ],
      "stateMutability": "view",
      "type": "function"
    },
    {
      "inputs": [],
      "name": "platformFee",
      "outputs": [
        {
          "internalType": "uint256",
          "name": "",
          "type": "uint256"
        }
      ],
      "stateMutability": "view",
      "type": "function"
    },
    {
      "inputs": [],
      "name": "platformWallet",
      "outputs": [
        {
          "internalType": "address",
          "name": "",
          "type": "address"
        }
      ],
      "stateMutability": "view",
      "type": "function"
    },
    {
      "inputs": [
        {
          "internalType": "address",
          "name": "_admin",
          "type": "address"
        }
      ],
      "name": "removeAdmin",
      "outputs": [],
      "stateMutability": "nonpayable",
      "type": "function"
    },
    {
      "inputs": [
        {
          "internalType": "address",
          "name": "_creator",
          "type": "address"
        }
      ],
      "name": "removeContentCreator",
      "outputs": [],
      "stateMutability": "nonpayable",
      "type": "function"
    },
    {
      "inputs": [],
      "name": "renounceOwnership",
      "outputs": [],
      "stateMutability": "nonpayable",
      "type": "function"
    },
    {
      "inputs": [
        {
          "internalType": "address",
          "name": "newOwner",
          "type": "address"
        }
      ],
      "name": "transferOwnership",
      "outputs": [],
      "stateMutability": "nonpayable",
      "type": "function"
    },
    {
      "inputs": [
        {
          "internalType": "address",
          "name": "buyer",
          "type": "address"
        },
        {
          "internalType": "address",
          "name": "creator",
          "type": "address"
        },
        {
          "internalType": "uint256",
          "name": "amount",
          "type": "uint256"
        }
      ],
      "name": "processPayment",
      "outputs": [],
      "stateMutability": "nonpayable",
      "type": "function"
    },
    {
      "inputs": [
        {
          "internalType": "uint256",
          "name": "newFee",
          "type": "uint256"
        }
      ],
      "name": "updatePlatformFee",
      "outputs": [],
      "stateMutability": "nonpayable",
      "type": "function"
    },
    {
      "inputs": [
        {
          "internalType": "address",
          "name": "newWallet",
          "type": "address"
        }
      ],
      "name": "updatePlatformWallet",
      "outputs": [],
      "stateMutability": "nonpayable",
      "type": "function"
    },
    {
      "inputs": [
        {
          "internalType": "contract IERC20",
          "name": "token",
          "type": "address"
        },
        {
          "internalType": "address",
          "name": "to",
          "type": "address"
        },
        {
          "internalType": "uint256",
          "name": "amount",
          "type": "uint256"
        }
      ],
      "name": "withdrawTokens",
      "outputs": [],
      "stateMutability": "nonpayable",
      "type": "function"
    }
  ],
  "bytecode": "0x60806040523480156200001157600080fd5b506040516200218238038062002182833981810160405281019062000037919062000294565b620000576200004b6200018360201b60201c565b6200018b60201b60201c565b60018060003373ffffffffffffffffffffffffffffffffffffffff1673ffffffffffffffffffffffffffffffffffffffff16815260200190815260200160002060006101000a81548160ff0219169083151502179055503373ffffffffffffffffffffffffffffffffffffffff167f44d6d25963f097ad14f29f06854a01f575648a1ef82f30e562ccd3889717e33960405160405180910390a282600360006101000a81548173ffffffffffffffffffffffffffffffffffffffff021916908373ffffffffffffffffffffffffffffffffffffffff1602179055508160048190555080600560006101000a81548173ffffffffffffffffffffffffffffffffffffffff021916908373ffffffffffffffffffffffffffffffffffffffff1602179055505050506200038a565b600033905090565b60008060009054906101000a900473ffffffffffffffffffffffffffffffffffffffff169050816000806101000a81548173ffffffffffffffffffffffffffffffffffffffff021916908373ffffffffffffffffffffffffffffffffffffffff1602179055508173ffffffffffffffffffffffffffffffffffffffff168173ffffffffffffffffffffffffffffffffffffffff167f8be0079c531659141344cd1fd0a4f28419497f9722a3daafe3b4186f6b6457e060405160405180910390a35050565b60008151905062000260816200033c565b92915050565b600081519050620002778162000356565b92915050565b6000815190506200028e8162000370565b92915050565b600080600060608486031215620002aa57600080fd5b6000620002ba8682870162000266565b9350506020620002cd868287016200027d565b9250506040620002e0868287016200024f565b9150509250925092565b6000620002f78262000312565b9050919050565b60006200030b82620002ea565b9050919050565b600073ffffffffffffffffffffffffffffffffffffffff82169050919050565b6000819050919050565b6200034781620002ea565b81146200035357600080fd5b50565b6200036181620002fe565b81146200036d57600080fd5b50565b6200037b8162000332565b81146200038757600080fd5b50565b611de8806200039a6000396000f3fe608060405234801561001057600080fd5b50600436106101005760003560e01c80638da5cb5b11610097578063b0c04d4611610066578063b0c04d4614610271578063d1a0cc5c1461028d578063f2fde38b146102a9578063fa2af9da146102c557610100565b80638da5cb5b146101ff578063aa0b59881461021d578063ada4ef3014610239578063af91985e1461025557610100565b806332f41bf6116100d357806332f41bf61461018d5780635e35359e146101bd57806370480275146101d9578063715018a6146101f557610100565b80631785f53c1461010557806324d7806c1461012157806326232a2e146101515780633013ce291461016f575b600080fd5b61011f600480360381019061011a91906112fe565b6102e3565b005b61013b600480360381019061013691906112fe565b610415565b6040516101489190611990565b60405180910390f35b61015961046b565b6040516101669190611b66565b60405180910390f35b610177610471565b60405161018491906119ab565b60405180910390f35b6101a760048036038101906101a291906112fe565b610497565b6040516101b49190611990565b60405180910390f35b6101d760048036038101906101d2919061139f565b6104ed565b005b6101f360048036038101906101ee91906112fe565b610653565b005b6101fd610768565b005b61020761077c565b60405161021491906118ec565b60405180910390f35b610237600480360381019061023291906113ee565b6107a5565b005b610253600480360381019061024e91906112fe565b6108cf565b005b61026f600480360381019061026a91906112fe565b610a70565b005b61028b600480360381019061028691906112fe565b610c26565b005b6102a760048036038101906102a29190611327565b610dc0565b005b6102c360048036038101906102be91906112fe565b6110a1565b005b6102cd611125565b6040516102da91906118ec565b60405180910390f35b6102eb61114b565b600160008273ffffffffffffffffffffffffffffffffffffffff1673ffffffffffffffffffffffffffffffffffffffff16815260200190815260200160002060009054906101000a900460ff16610377576040517f08c379a000000000000000000000000000000000000000000000000000000000815260040161036e90611a46565b60405180910390fd5b6000600160008373ffffffffffffffffffffffffffffffffffffffff1673ffffffffffffffffffffffffffffffffffffffff16815260200190815260200160002060006101000a81548160ff0219169083151502179055508073ffffffffffffffffffffffffffffffffffffffff167fa3b62bc36326052d97ea62d63c3d60308ed4c3ea8ac079dd8499f1e9c4f80c0f60405160405180910390a250565b6000600160008373ffffffffffffffffffffffffffffffffffffffff1673ffffffffffffffffffffffffffffffffffffffff16815260200190815260200160002060009054906101000a900460ff169050919050565b60045481565b600360009054906101000a900473ffffffffffffffffffffffffffffffffffffffff1681565b6000600260008373ffffffffffffffffffffffffffffffffffffffff1673ffffffffffffffffffffffffffffffffffffffff16815260200190815260200160002060009054906101000a900460ff169050919050565b6104f561114b565b808373ffffffffffffffffffffffffffffffffffffffff166370a08231306040518263ffffffff1660e01b815260040161052f91906118ec565b60206040518083038186803b15801561054757600080fd5b505afa15801561055b573d6000803e3d6000fd5b505050506040513d601f19601f8201168201806040525081019061057f9190611417565b10156105c0576040517f08c379a00000000000000000000000000000000000000000000000000000000081526004016105b790611aa6565b60405180910390fd5b8273ffffffffffffffffffffffffffffffffffffffff1663a9059cbb83836040518363ffffffff1660e01b81526004016105fb929190611967565b602060405180830381600087803b15801561061557600080fd5b505af1158015610629573d6000803e3d6000fd5b505050506040513d601f19601f8201168201806040525081019061064d9190611376565b50505050565b61065b61114b565b600073ffffffffffffffffffffffffffffffffffffffff168173ffffffffffffffffffffffffffffffffffffffff1614156106cb576040517f08c379a00000000000000000000000000000000000000000000000000000000081526004016106c2906119e6565b60405180910390fd5b60018060008373ffffffffffffffffffffffffffffffffffffffff1673ffffffffffffffffffffffffffffffffffffffff16815260200190815260200160002060006101000a81548160ff0219169083151502179055508073ffffffffffffffffffffffffffffffffffffffff167f44d6d25963f097ad14f29f06854a01f575648a1ef82f30e562ccd3889717e33960405160405180910390a250565b61077061114b565b61077a60006111c9565b565b60008060009054906101000a900473ffffffffffffffffffffffffffffffffffffffff16905090565b600160003373ffffffffffffffffffffffffffffffffffffffff1673ffffffffffffffffffffffffffffffffffffffff16815260200190815260200160002060009054906101000a900460ff16610831576040517f08c379a000000000000000000000000000000000000000000000000000000000815260040161082890611ae6565b60405180910390fd5b8060008110158015610844575060648111155b610883576040517f08c379a000000000000000000000000000000000000000000000000000000000815260040161087a90611b46565b60405180910390fd5b60006004549050826004819055507fd347e206f25a89b917fc9482f1a2d294d749baa4dc9bde7fb495ee11fe49164381846040516108c2929190611b81565b60405180910390a1505050565b600160003373ffffffffffffffffffffffffffffffffffffffff1673ffffffffffffffffffffffffffffffffffffffff16815260200190815260200160002060009054906101000a900460ff1661095b576040517f08c379a000000000000000000000000000000000000000000000000000000000815260040161095290611ae6565b60405180910390fd5b600073ffffffffffffffffffffffffffffffffffffffff168173ffffffffffffffffffffffffffffffffffffffff1614156109cb576040517f08c379a00000000000000000000000000000000000000000000000000000000081526004016109c290611ac6565b60405180910390fd5b6000600560009054906101000a900473ffffffffffffffffffffffffffffffffffffffff16905081600560006101000a81548173ffffffffffffffffffffffffffffffffffffffff021916908373ffffffffffffffffffffffffffffffffffffffff1602179055507ff84f6b525c89a18c80bbbc0c62a7eb5390956d6b8432ab067b49963a98f8c38f8183604051610a64929190611907565b60405180910390a15050565b600160003373ffffffffffffffffffffffffffffffffffffffff1673ffffffffffffffffffffffffffffffffffffffff16815260200190815260200160002060009054906101000a900460ff16610afc576040517f08c379a0000000000000000000000000000000000000000000000000000000008152600401610af390611ae6565b60405180910390fd5b600260008273ffffffffffffffffffffffffffffffffffffffff1673ffffffffffffffffffffffffffffffffffffffff16815260200190815260200160002060009054906101000a900460ff16610b88576040517f08c379a0000000000000000000000000000000000000000000000000000000008152600401610b7f90611a26565b60405180910390fd5b6000600260008373ffffffffffffffffffffffffffffffffffffffff1673ffffffffffffffffffffffffffffffffffffffff16815260200190815260200160002060006101000a81548160ff0219169083151502179055508073ffffffffffffffffffffffffffffffffffffffff167f2c7559a85197fffa10af676df323d35fe6cf671f30429c4579c78dd1ccf9586d60405160405180910390a250565b600160003373ffffffffffffffffffffffffffffffffffffffff1673ffffffffffffffffffffffffffffffffffffffff16815260200190815260200160002060009054906101000a900460ff16610cb2576040517f08c379a0000000000000000000000000000000000000000000000000000000008152600401610ca990611ae6565b60405180910390fd5b600073ffffffffffffffffffffffffffffffffffffffff168173ffffffffffffffffffffffffffffffffffffffff161415610d22576040517f08c379a0000000000000000000000000000000000000000000000000000000008152600401610d1990611a66565b60405180910390fd5b6001600260008373ffffffffffffffffffffffffffffffffffffffff1673ffffffffffffffffffffffffffffffffffffffff16815260200190815260200160002060006101000a81548160ff0219169083151502179055508073ffffffffffffffffffffffffffffffffffffffff167f78687cacbc7aab66a797e797a40ba0019dea128950d05fd954f4506f9e3d8f0a60405160405180910390a250565b60008111610e03576040517f08c379a0000000000000000000000000000000000000000000000000000000008152600401610dfa90611b26565b60405180910390fd5b6000606460045483610e159190611bec565b610e1f9190611bbb565b905060008183610e2f9190611c46565b9050600360009054906101000a900473ffffffffffffffffffffffffffffffffffffffff1673ffffffffffffffffffffffffffffffffffffffff166323b872dd86600560009054906101000a900473ffffffffffffffffffffffffffffffffffffffff16856040518463ffffffff1660e01b8152600401610eb293929190611930565b602060405180830381600087803b158015610ecc57600080fd5b505af1158015610ee0573d6000803e3d6000fd5b505050506040513d601f19601f82011682018060405250810190610f049190611376565b610f43576040517f08c379a0000000000000000000000000000000000000000000000000000000008152600401610f3a90611a06565b60405180910390fd5b600360009054906101000a900473ffffffffffffffffffffffffffffffffffffffff1673ffffffffffffffffffffffffffffffffffffffff166323b872dd8686846040518463ffffffff1660e01b8152600401610fa293929190611930565b602060405180830381600087803b158015610fbc57600080fd5b505af1158015610fd0573d6000803e3d6000fd5b505050506040513d601f19601f82011682018060405250810190610ff49190611376565b611033576040517f08c379a000000000000000000000000000000000000000000000000000000000815260040161102a90611b06565b60405180910390fd5b8373ffffffffffffffffffffffffffffffffffffffff168573ffffffffffffffffffffffffffffffffffffffff167fa6c1325e03b867ee45303c64111dc7e52670f1da44597390374b5210cda6508d8585604051611092929190611b81565b60405180910390a35050505050565b6110a961114b565b600073ffffffffffffffffffffffffffffffffffffffff168173ffffffffffffffffffffffffffffffffffffffff161415611119576040517f08c379a0000000000000000000000000000000000000000000000000000000008152600401611110906119c6565b60405180910390fd5b611122816111c9565b50565b600560009054906101000a900473ffffffffffffffffffffffffffffffffffffffff1681565b61115361128d565b73ffffffffffffffffffffffffffffffffffffffff1661117161077c565b73ffffffffffffffffffffffffffffffffffffffff16146111c7576040517f08c379a00000000000000000000000000000000000000000000000000000000081526004016111be90611a86565b60405180910390fd5b565b60008060009054906101000a900473ffffffffffffffffffffffffffffffffffffffff169050816000806101000a81548173ffffffffffffffffffffffffffffffffffffffff021916908373ffffffffffffffffffffffffffffffffffffffff1602179055508173ffffffffffffffffffffffffffffffffffffffff168173ffffffffffffffffffffffffffffffffffffffff167f8be0079c531659141344cd1fd0a4f28419497f9722a3daafe3b4186f6b6457e060405160405180910390a35050565b600033905090565b6000813590506112a481611d56565b92915050565b6000815190506112b981611d6d565b92915050565b6000813590506112ce81611d84565b92915050565b6000813590506112e381611d9b565b92915050565b6000815190506112f881611d9b565b92915050565b60006020828403121561131057600080fd5b600061131e84828501611295565b91505092915050565b60008060006060848603121561133c57600080fd5b600061134a86828701611295565b935050602061135b86828701611295565b925050604061136c868287016112d4565b9150509250925092565b60006020828403121561138857600080fd5b6000611396848285016112aa565b91505092915050565b6000806000606084860312156113b457600080fd5b60006113c2868287016112bf565b93505060206113d386828701611295565b92505060406113e4868287016112d4565b9150509250925092565b60006020828403121561140057600080fd5b600061140e848285016112d4565b91505092915050565b60006020828403121561142957600080fd5b6000611437848285016112e9565b91505092915050565b61144981611c7a565b82525050565b61145881611c8c565b82525050565b61146781611cd4565b82525050565b600061147a602683611baa565b91507f4f776e61626c653a206e6577206f776e657220697320746865207a65726f206160008301527f64647265737300000000000000000000000000000000000000000000000000006020830152604082019050919050565b60006114e0602483611baa565b91507f416363657373436f6e74726f6c3a20496e76616c69642061646d696e2061646460008301527f72657373000000000000000000000000000000000000000000000000000000006020830152604082019050919050565b6000611546601c83611baa565b91507f506c6174666f726d20666565207472616e73666572206661696c6564000000006000830152602082019050919050565b6000611586602f83611baa565b91507f416363657373436f6e74726f6c3a2041646472657373206973206e6f7420612060008301527f636f6e74656e742063726561746f7200000000000000000000000000000000006020830152604082019050919050565b60006115ec602683611baa565b91507f416363657373436f6e74726f6c3a2041646472657373206973206e6f7420616e60008301527f2061646d696e00000000000000000000000000000000000000000000000000006020830152604082019050919050565b6000611652602683611baa565b91507f416363657373436f6e74726f6c3a20496e76616c69642063726561746f72206160008301527f64647265737300000000000000000000000000000000000000000000000000006020830152604082019050919050565b60006116b8602083611baa565b91507f4f776e61626c653a2063616c6c6572206973206e6f7420746865206f776e65726000830152602082019050919050565b60006116f8601a83611baa565b91507f496e73756666696369656e7420746f6b656e2062616c616e63650000000000006000830152602082019050919050565b6000611738602983611baa565b91507f4e65772077616c6c657420616464726573732063616e6e6f74206265207a657260008301527f6f206164647265737300000000000000000000000000000000000000000000006020830152604082019050919050565b600061179e602583611baa565b91507f416363657373436f6e74726f6c3a2043616c6c6572206973206e6f7420616e2060008301527f61646d696e0000000000000000000000000000000000000000000000000000006020830152604082019050919050565b6000611804601f83611baa565b91507f43726561746f72207061796d656e74207472616e73666572206661696c6564006000830152602082019050919050565b6000611844602883611baa565b91507f5061796d656e7420616d6f756e74206d7573742062652067726561746572207460008301527f68616e207a65726f0000000000000000000000000000000000000000000000006020830152604082019050919050565b60006118aa601683611baa565b91507f496e76616c6964206665652070657263656e74616765000000000000000000006000830152602082019050919050565b6118e681611cca565b82525050565b60006020820190506119016000830184611440565b92915050565b600060408201905061191c6000830185611440565b6119296020830184611440565b9392505050565b60006060820190506119456000830186611440565b6119526020830185611440565b61195f60408301846118dd565b949350505050565b600060408201905061197c6000830185611440565b61198960208301846118dd565b9392505050565b60006020820190506119a5600083018461144f565b92915050565b60006020820190506119c0600083018461145e565b92915050565b600060208201905081810360008301526119df8161146d565b9050919050565b600060208201905081810360008301526119ff816114d3565b9050919050565b60006020820190508181036000830152611a1f81611539565b9050919050565b60006020820190508181036000830152611a3f81611579565b9050919050565b60006020820190508181036000830152611a5f816115df565b9050919050565b60006020820190508181036000830152611a7f81611645565b9050919050565b60006020820190508181036000830152611a9f816116ab565b9050919050565b60006020820190508181036000830152611abf816116eb565b9050919050565b60006020820190508181036000830152611adf8161172b565b9050919050565b60006020820190508181036000830152611aff81611791565b9050919050565b60006020820190508181036000830152611b1f816117f7565b9050919050565b60006020820190508181036000830152611b3f81611837565b9050919050565b60006020820190508181036000830152611b5f8161189d565b9050919050565b6000602082019050611b7b60008301846118dd565b92915050565b6000604082019050611b9660008301856118dd565b611ba360208301846118dd565b9392505050565b600082825260208201905092915050565b6000611bc682611cca565b9150611bd183611cca565b925082611be157611be0611d27565b5b828204905092915050565b6000611bf782611cca565b9150611c0283611cca565b9250817fffffffffffffffffffffffffffffffffffffffffffffffffffffffffffffffff0483118215151615611c3b57611c3a611cf8565b5b828202905092915050565b6000611c5182611cca565b9150611c5c83611cca565b925082821015611c6f57611c6e611cf8565b5b828203905092915050565b6000611c8582611caa565b9050919050565b60008115159050919050565b6000611ca382611c7a565b9050919050565b600073ffffffffffffffffffffffffffffffffffffffff82169050919050565b6000819050919050565b6000611cdf82611ce6565b9050919050565b6000611cf182611caa565b9050919050565b7f4e487b7100000000000000000000000000000000000000000000000000000000600052601160045260246000fd5b7f4e487b7100000000000000000000000000000000000000000000000000000000600052601260045260246000fd5b611d5f81611c7a565b8114611d6a57600080fd5b50565b611d7681611c8c565b8114611d8157600080fd5b50565b611d8d81611c98565b8114611d9857600080fd5b50565b611da481611cca565b8114611daf57600080fd5b5056fea2646970667358221220aa0bfc2ecf0dc0a36497b5de5eb1448d2849e0782e3802672b11050e49eb1c9764736f6c63430008000033",
  "immutableReferences": {},
  "source": "// SPDX-License-Identifier: MIT\r\npragma solidity ^0.8.0;\r\n\r\nimport \"./AccessControl.sol\";\r\nimport \"@openzeppelin/contracts/token/ERC20/IERC20.sol\";\r\n\r\ncontract Payment is AccessControl {\r\n    IERC20 public paymentToken; // The ERC-20 token used for payments\r\n    uint256 public platformFee; // Platform fee percentage\r\n    address public platformWallet; // Platform wallet for collecting fees\r\n\r\n    // Events\r\n    event PaymentProcessed(\r\n        address indexed buyer,\r\n        address indexed creator,\r\n        uint256 amount,\r\n        uint256 feeAmount\r\n    );\r\n    event PlatformFeeUpdated(uint256 oldFee, uint256 newFee);\r\n    event PlatformWalletUpdated(address oldWallet, address newWallet);\r\n\r\n    constructor(\r\n        IERC20 _paymentToken,\r\n        uint256 _platformFee,\r\n        address _platformWallet\r\n    ) AccessControl() { // Explicitly calling the AccessControl constructor\r\n        paymentToken = _paymentToken;\r\n        platformFee = _platformFee;\r\n        platformWallet = _platformWallet;\r\n    }\r\n\r\n    // Modifier to ensure a valid fee percentage\r\n    modifier validFee(uint256 _fee) {\r\n        require(_fee >= 0 && _fee <= 100, \"Invalid fee percentage\");\r\n        _;\r\n    }\r\n\r\n    // Function to process a payment between a buyer and a content creator\r\n    function processPayment(address buyer, address creator, uint256 amount) external {\r\n        require(amount > 0, \"Payment amount must be greater than zero\");\r\n\r\n        // Calculate the platform fee and the amount to be sent to the creator\r\n        uint256 feeAmount = (amount * platformFee) / 100;\r\n        uint256 creatorAmount = amount - feeAmount;\r\n\r\n        // Transfer the platform fee to the platform wallet\r\n        require(\r\n            paymentToken.transferFrom(buyer, platformWallet, feeAmount),\r\n            \"Platform fee transfer failed\"\r\n        );\r\n\r\n        // Transfer the remaining amount to the creator\r\n        require(\r\n            paymentToken.transferFrom(buyer, creator, creatorAmount),\r\n            \"Creator payment transfer failed\"\r\n        );\r\n\r\n        emit PaymentProcessed(buyer, creator, amount, feeAmount);\r\n    }\r\n\r\n    // Function to update the platform fee (only owner or admin can do this)\r\n    function updatePlatformFee(uint256 newFee) external onlyAdmin validFee(newFee) {\r\n        uint256 oldFee = platformFee;\r\n        platformFee = newFee;\r\n        emit PlatformFeeUpdated(oldFee, newFee);\r\n    }\r\n\r\n    // Function to update the platform wallet address (only owner or admin can do this)\r\n    function updatePlatformWallet(address newWallet) external onlyAdmin {\r\n        require(newWallet != address(0), \"New wallet address cannot be zero address\");\r\n        address oldWallet = platformWallet;\r\n        platformWallet = newWallet;\r\n        emit PlatformWalletUpdated(oldWallet, newWallet);\r\n    }\r\n\r\n    // Withdraw any tokens mistakenly sent to the contract\r\n    function withdrawTokens(IERC20 token, address to, uint256 amount) external onlyOwner {\r\n        require(token.balanceOf(address(this)) >= amount, \"Insufficient token balance\");\r\n        token.transfer(to, amount);\r\n    }\r\n}\r\n",
  "sourcePath": "A:\\Blockchainformedia\\contracts\\Payment.sol",
  "compiler": {
    "name": "solc",
    "version": "0.8.0+commit.c7dfd78e.Emscripten.clang"
  },
  "schemaVersion": "3.4.16",
  "updatedAt": "2024-09-30T16:19:09.448Z",
  "devdoc": {
    "kind": "dev",
    "methods": {
      "owner()": {
        "details": "Returns the address of the current owner."
      },
      "renounceOwnership()": {
        "details": "Leaves the contract without owner. It will not be possible to call `onlyOwner` functions anymore. Can only be called by the current owner. NOTE: Renouncing ownership will leave the contract without an owner, thereby removing any functionality that is only available to the owner."
      },
      "transferOwnership(address)": {
        "details": "Transfers ownership of the contract to a new account (`newOwner`). Can only be called by the current owner."
      }
    },
    "version": 1
  },
  "userdoc": {
    "kind": "user",
    "methods": {},
    "version": 1
  }
}